:100000000C945A010C948B010C948B010C948B0171
:100010000C948B010C948B010C948B010C948B0130
:100020000C948B010C948B010C948B010C948B0120
:100030000C948B010C948B010C948B010C948B0110
:100040000C948B010C948B010C948B010C948B0100
:100050000C948B010C948B010C948B010C944B0C25
:100060000C948B010C942E0F0C94040F0C948B01A8
:100070000C948B010C948B010C948B010C948B01D0
:100080000C948B010C948B010C948B010C948B01C0
:100090000C948B010C948B010C948B010C948B01B0
:1000A0000C948B010C948B010C948B010C948B01A0
:1000B0000C948B010C948B010C948B010C948B0190
:1000C0000C948B010C948B010C948B010C948B0180
:1000D0000C948B010C948B010C948B010C948B0170
:1000E0000C948B01FB09FE09ED09F109F509350AAC
:1000F000020A060A0C0A100A140A1A0A1E0A220A1E
:10010000350A280A2C0A300A0C94CE0C0C94520E94
:100110000C94BF0C0C94F5090C94FE090C941E0A67
:100120000C94060A0C940C0A0C947C090C94020A98
:100130000C94AE010C941A0A0C94220A0C94F40D3F
:100140000C94350A0C94950C0C94BF010C94FB098B
:100150000C94D5010C9486090C94140A0C9426086E
:100160000C94280A0C94F00C0C94CA090C94100AF4
:100170000C941D020C94750D0C944A170C94F10903
:100180000C94ED090C94D6010C94280D0C94300AB3
:100190000C942C0A0C948D010C94E20C00000A0BB8
:1001A00002090C0D0E080703040100000000000006
:1001B000000000000000000000000000000000003F
:1001C00000000000000000001211100000000000FC
:1001D000000000000000000000000000000000001F
:1001E00000007C3C3E5E2B3D3F2F5B5D3B2C2A227A
:1001F0005C0000002200250028002B002E003100AA
:10020000340002010000050108010B01000021007B
:10021000240027002A002D003000330001010000D7
:10022000040107010A010505050507050808080876
:10023000020202020A0A080804040404010101017E
:100240000101010103030303030303030407070779
:100250000C0C0C0C0C0C0C0C02020202060606061E
:10026000060606060B0B0B0B0B0B0B0B01021020EB
:1002700020080810204010204080020102010804DC
:100280000201010204081020408080402010080470
:1002900002018004020180402010080402010804C9
:1002A000020101020408102040800102040810200D
:1002B00040804A1711241FBECFEFD1E2DEBFCDBF71
:1002C00000E00CBF25E0A4EBB2E001C01D92AD3D03
:1002D000B207E1F712E0A0E0B2E0E4E7F4E300E007
:1002E0000BBF02C007900D92A43BB107D9F711E0F4
:1002F000CAE5D1E000E006C021970109802FFE0188
:100300000E94EE17C935D10780E00807A9F70E94BF
:1003100011160C94381A0C940000DC015996ED91DA
:10032000FC915A973097B9F083899489A589B68949
:100330004285538564857585841B950BA60BB70B89
:10034000811520E89207A105B10538F08FEF9FE7EE
:10035000A0E0B0E0089580E090E00895DC015996B7
:100360008D919C915A97009739F0DC01ED91FC91A9
:100370000480F581E02D199480E090E00895CF93FA
:10038000DF931F92CDB7DEB76983DC01ED91FC915D
:100390000280F381E02D41E050E0BE016F5F7F4FAE
:1003A00019950F90DF91CF910895089580E090E026
:1003B00008951F93CF93DF93FC0125812223C1F180
:1003C000162FEC01848187FF28C066857785808998
:1003D000918941E00E948D0F882351F1EA8980E2E2
:1003E000E89FF0011124EF53FD4F309709F18D8103
:1003F000823040F48B899C89AD89BE89848F958F2A
:10040000A68FB78F8F89988DA98DBA8D938F828F84
:10041000B58BA48B8C818F778C83111103C08C8159
:100420008F7E8C83812FDF91CF911F910C94640F6D
:1004300080E0DF91CF911F910895FC01818D928D15
:10044000009719F061E00C94D90108958F929F9262
:10045000AF92BF92CF92DF92EF92FF920F931F93D2
:10046000CF93DF93EC018D81811102C080E078C0D1
:100470000B891C892D893E89041715072607370724
:10048000A8F36A017B01823029F4CA86DB86EC86F8
:10049000FD860DC0C114D104E104F10451F41E82A3
:1004A0001F82188619861A861B861C861D8681E087
:1004B00057C08A849B84AC84BD84EB8DFC8D2585DC
:1004C00030E0275F3F4FB501A40141505109610958
:1004D0007109022E04C076956795579547950A9441
:1004E000D2F7D701C6010197A109B10904C0B69599
:1004F000A795979587952A95D2F784179507A6070C
:10050000B70720F089288A288B2871F44F89588DE5
:10051000698D7A8D4E835F83688779874C015D0191
:100520008E010A5F1F4F16C0841B950BA60BB70BDD
:10053000F5CF4E815F816885798598018B8D9C8D83
:100540000E948F1191E0891A9108A108B1088823AF
:1005500009F48CCF81149104A104B10451F795CF13
:10056000DF91CF911F910F91FF90EF90DF90CF908F
:10057000BF90AF909F908F9008958F929F92AF926F
:10058000BF92CF92DF92EF92FF920F931F93CF9380
:10059000DF9300D01F92CDB7DEB77C0180E2689F69
:1005A000F0011124EF53FD4F9385917121F0842FB9
:1005B000827409F08FC0142FD70152966C93529712
:1005C0004091000250910102609102027091030279
:1005D0001E964D935D936D937C93519744895589F5
:1005E00060E070E0BA0155274427828D938DA0E02A
:1005F000B0E0482B592B6A2B7B2BD70157964D9394
:100600005D936D937C935A978385887159F4848D9B
:10061000958DA68DB78DF701838B948BA58BB68BAB
:1006200081E012C0803109F055C097012D5E3F4F27
:10063000D7015B968D919C915C970E94331488231F
:1006400009F448C084E0F7018583812F8F70D701BA
:1006500014968C931497F7011682178210861186D0
:100660001A961D921D921D921C921D9716FF34C062
:1006700015968C91813071F511FF2CC0F7014389DB
:10068000548965897689452B462B472B09F462C02E
:1006900040E050E0BA01C7010E9426028823D1F051
:1006A000F7018788908CA18CB28CC38CD48C82E0AB
:1006B00090E0A0E0B0E0F60180839183A283B38351
:1006C0009E012F5F3F4FB501A401C6010E948F110B
:1006D000811104C080E03EC081E03CC000E010E039
:1006E0009801B501A401C6010E94EE10882391F380
:1006F00089809A80AB80BC80D60157968C918031DE
:1007000029F088EF9FEFAFEFBFE004C088EF9FEFC5
:10071000A0E0B0E088169906AA06BB0688F2D701C9
:1007200057961D921D921D921C925A97F701138A9B
:10073000148A158A168A84818068848361E0C701DF
:100740000E94D901882331F240E050E0BA01C7018C
:100750000E9426020F900F900F900F90DF91CF9183
:100760001F910F91FF90EF90DF90CF90BF90AF90CF
:100770009F908F900895CF93DF93EC0161E00E94EA
:10078000D901882311F01D8281E0DF91CF91089576
:100790003F924F925F926F927F928F929F92AF9211
:1007A000BF92CF92DF92EF92FF920F931F93CF935E
:1007B000DF93CDB7DEB72C970FB6F894DEBF0FBE30
:1007C000CDBF5C01DC015B968D909C905C9716968A
:1007D000CD90DD90ED90FC901997C114D104E10407
:1007E000F10439F0BFEFCB1ADB0AEB0AFB0A312C1C
:1007F00007C0F401C080D180E280F38033243394B9
:10080000F40181859285A385B4859C01AD012F5F9C
:100810003F4F4F4F5F4F29873A874B875C872601B1
:1008200037011D821E821F821886F4018185928500
:10083000A385B4852D813E814F81588528173907BE
:100840004A075B0708F063C089859A85AB85BC853C
:100850008C159D05AE05BF0550F482E0C82ED12C45
:10086000E12CF12C92E0492E512C612C712C9E012F
:100870002F5F3F4FB701A601C4010E948F1188234B
:1008800009F445C089819A81AB81BC81892B8A2B6F
:100890008B2B41F0260137019FEF491A590A690A4B
:1008A000790A05C0C414D504E604F70491F02D813B
:1008B0003E814F8158852F5F3F4F4F4F5F4F2D83B4
:1008C0003E834F8358873FEFC31AD30AE30AF30AE4
:1008D000ACCF0FEF1FEF2FEF3FE0B301A201C40138
:1008E0000E94EE10882399F0D50116964D915D91E6
:1008F0006D917C911997411551056105710549F07C
:1009000093018201C4010E94EE10811102C080E0B7
:100910002EC0D50116964D925D926D927C921997DC
:10092000332051F0D301C2010196A11DB11DF40184
:1009300080839183A283B383F5018789908DA18DF4
:10094000B28D892B8A2B8B2B69F4D50157964D924A
:100950005D926D927C925A9714968C911497806850
:1009600014968C93F50184818062848381E02C96B7
:100970000FB6F894DEBF0FBECDBFDF91CF911F91B0
:100980000F91FF90EF90DF90CF90BF90AF909F902E
:100990008F907F906F905F904F903F9008958FB7AA
:1009A000F8948091B5028FBF089561E0FC018481C5
:1009B0000E94CC098091B40281111092B402089572
:1009C0008EBD00000DB407FEFDCF8EB508958FEFEC
:1009D0000C94E0040F931F93CF93DF93EB010E94DD
:1009E0004A0A8B010E94E7048F3F49F00E944A0A9D
:1009F000601B710B6C177D07A8F380E001C081E0DC
:100A0000DF91CF911F910F910895CF93DF93EC0168
:100A10008E81882389F08F8198859C012F5F3F4FBD
:100A200038872F838230924018F40E94E704F3CF76
:100A3000CE010E94D5041E82DF91CF9108958CBD16
:100A40009DBD0895CF93DF93EC018091B402811195
:100A500009C081E08093B40280916405909165059E
:100A60000E941F0560E08C81DF91CF910C94CC092E
:100A70008F929F92AF92BF92FF920F931F93CF934B
:100A8000DF93EC01F62E49015A010E940505CE01C3
:100A90000E9422056CE271E0CE010E94EA048F2DD3
:100AA00080640E94E00408E110E0D501C401002E3A
:100AB00004C0B695A795979587950A94D2F70E949A
:100AC000E00408501109083F8FEF180771F7FF2065
:100AD00029F088E0F81204C087E803C085E901C066
:100AE0008FEF0E94E00410E00E94E7048A8787FFEE
:100AF00004C01F3F11F01F5FF7CFDF91CF911F910F
:100B00000F91FF90BF90AF909F908F900895AF92FC
:100B1000BF92CF92DF92EF92FF920F931F93CF93EA
:100B2000DF93EC016901C801820F931F813092406D
:100B300008F070C08E81882371F088819981AA8124
:100B4000BB8184179507A607B70729F48F8198857D
:100B5000C816D906B0F5488359836A837B838B8591
:100B6000833039F089E0440F551F661F771F8A953F
:100B7000D1F79A01AB0161E1CE010E9438058823CB
:100B800019F083E08D8346C00E944A0A5B010E94EF
:100B9000E7048A878F3F49F40E944A0A6A197B0951
:100BA0006D327140A0F38FE003C08E3F31F08DE0D5
:100BB0008D83CE010E94D5042DC018861F8281E04E
:100BC0008E838F8198858C159D0540F40E94E704E3
:100BD0008F819885019698878F83F3CF6701E00E08
:100BE000F11EEC14FD0431F00E94E704F60181933C
:100BF0006F01F7CF8F819885080F191F18870F8312
:100C00008985882319F00115124048F0CE010E9411
:100C1000050505C0CE010E94D50480E001C081E039
:100C2000DF91CF911F910F91FF90EF90DF90CF90C8
:100C3000BF90AF900895CF92DF92EF92FF920F9303
:100C4000CF93DF93EC0169014115510561057105F1
:100C500011F482E13EC08B85833039F089E0440F86
:100C6000551F661F771F8A95D1F79A01AB0168E17E
:100C7000CE010E943805882311F084E02AC08EEF4F
:100C80000E94E00476018EEFD81AF70181917F016E
:100C90000E94E004CE14DF04C1F78FEF0E94E0044D
:100CA0008FEF0E94E0040E94E7048A878F718530ED
:100CB00031F081E18D83CE010E94D5040BC0002369
:100CC000D9F068E572E0CE010E94EA04811107C004
:100CD00085E18D83CE010E94D50480E014C020E020
:100CE00030E0A9016DE0CE010E943805811109C0F4
:100CF0000E94E704811105C0CE010E94D50481E065
:100D000002C084E1E6CFDF91CF910F91FF90EF9089
:100D1000DF90CF9008952F923F924F925F926F9203
:100D20007F928F929F92AF92BF92CF92DF92EF927B
:100D3000FF920F931F93CF93DF9300D01F921F92C8
:100D4000CDB7DEB77C015B01342E5D83DC011596E7
:100D50008C9115978130C9F414962C9021FE15C002
:100D600022FE1DC0F70143895489658976898285F1
:100D70009385A485B58584179507A607B70779F0ED
:100D8000C7010E94260281110AC081E090E0D701CC
:100D900013969C938E93129780E090E03FC1C32CF2
:100DA000DD8022947FE02722822D80958170282E7D
:100DB00081C05B968D919C915C97FC0174807A94C4
:100DC0008A019B0169E036952795179507956A95E5
:100DD000D1F770228A011170772009F477C080E082
:100DE00092E0801B910B46018C159D0508F44C0187
:100DF000D7015B962D913C915C9716968D919D91B4
:100E00000D90BC91A02D0297A109B109F9010584AB
:100E100004C0880F991FAA1FBB1F0A94D2F74685EA
:100E2000578560897189840F951FA61FB71F9C0184
:100E3000AD01270D311D411D511D29013A018114BC
:100E400032E0930609F089C080910002909101027E
:100E5000A0910202B0910302481659066A067B0669
:100E600059F48FEF9FEFDC01809300029093010211
:100E7000A0930202B0930302022D9501B301A201D7
:100E80008091C1049091C2040E941B06882309F43A
:100E90007CCF9EEFB91AC818D908F70182859385CF
:100EA000A485B585880D991DA11DB11D82879387E5
:100EB000A487B587D7011A964D915D916D917C916C
:100EC0001D97C114D10409F074CF88C00115110514
:100ED00009F085CF16964D915D916D917C91199792
:100EE000411551056105710559F457968D919D91F4
:100EF0000D90BC91A02D0097A105B10541F521C031
:100F00009E012F5F3F4F0E948F11882309F445CF28
:100F100089819A81AB81BC81F701238D348DF901E0
:100F20002789203129F048EF5FEF6FEF7FE004C0A1
:100F300048EF5FEF60E070E084179507A607B707FA
:100F400030F0C7010E94C803811149CF1ECFF701BD
:100F500086839783A087B18742CF0115110531F5AC
:100F6000D7011A964D915D916D917C911D97539685
:100F70008D919D910D90BC91A02D481759076A073E
:100F80007B07A0F081E00E94640F882309F4FDCE66
:100F9000409200025092010260920202709203029B
:100FA0008091C00281608093C00208C041E0C3010B
:100FB000B2010E948D0F882309F4E7CED501F80114
:100FC000EF53FD4F9F01280D391D2E173F0719F0D4
:100FD0008D918193FACFA80CB91C5DCFF70183895D
:100FE0009489A589B68984179507A607B70738F4A9
:100FF000438B548B658B768B848180688483F70167
:10100000848183FD03C0832D9D8108C061E0C701F9
:101010000E94D901882309F4B8CEF5CF0F900F9024
:101020000F900F900F90DF91CF911F910F91FF9034
:10103000EF90DF90CF90BF90AF909F908F907F9078
:101040006F905F904F903F902F900895CF93DF93D4
:10105000EC01898D9A8D009739F481E090E09B83B3
:101060008A8380E090E00BC0FC01138212820E9410
:101070008B06E98DFA8D22813381232B71F7DF9165
:10108000CF910895FC01DB0112968D919C911397ED
:101090009383828384E492E09183808314968C917D
:1010A0001497848315968C911597858316964D9188
:1010B0005D916D917C911997468357836087718705
:1010C0001A964D915D916D917C911D974287538742
:1010D000648775871E964D915D916D917C915197B6
:1010E00046875787608B718B52968C915297828B73
:1010F00053964D915D916D917C915697438B548B96
:10110000658B768B57964D915D916D917C915A9739
:10111000478B508F618F728F5B968D919C915C97FE
:10112000948F838F08954F925F926F927F92AF92C8
:10113000BF92CF92DF92EF92FF920F931F93CF93C4
:10114000DF931F92CDB7DEB7FC012581222309F47E
:10115000C1C0848180FFBEC083899489A589B68976
:10116000428453846484758484159505A605B70567
:1011700009F4B0C06F015201F1E0BF22D6015B96C5
:101180008D919C915C97B301A20139E076956795AA
:10119000579547953A95D1F7223071F4FC01828D2D
:1011A000938DA48DB58D8A019B01080F191F2A1FED
:1011B0003B1FC901B8014AC0DC0114961C911150B3
:1011C0001423A114B104F9F411111DC045284628B7
:1011D000472851F4F6018789908DA18DB28D8683C1
:1011E0009783A087B1870FC0D60116964D915D9168
:1011F0006D917C91199796012A5F3F4F0E948F1144
:10120000882309F467C0F601238D348D8681978188
:10121000A085B1850297A109B109AC01BD01F90111
:10122000058404C0440F551F661F771F0A94D2F728
:1012300086859785A089B189840F951FA61FB71F42
:10124000BC01CD01610F711D811D911DD601149648
:101250002C9126FF0DC0409000025090010260903A
:10126000020270900302461657066806790699F442
:1012700040E00E948D0F882369F1F501EF53FD4F87
:10128000DE0111969F012F5F3F4F2E173F0799F008
:1012900081918D93FACFFE0131967F0101E010E03C
:1012A0009501AB01BC018091C1049091C2040E94E0
:1012B0008705882379F0F60182859385A485B58515
:1012C0000196A11DB11D82879387A487B587898167
:1012D00090E002C08FEF9FEF0F90DF91CF911F91B1
:1012E0000F91FF90EF90DF90CF90BF90AF907F90E5
:1012F0006F905F904F900895FC01818D928D0097C3
:1013000011F00C9493088FEF9FEF08950F931F93A4
:10131000CF93DF93FC01818D928D0097B9F0EF019F
:101320000E9493088C010F3F8FEF180791F0898D71
:101330009A8DFC014285538564857585415051091C
:10134000610971090E942602C80105C080E090E091
:1013500002C08FEF9FEFDF91CF911F910F91089502
:101360000F931F93CF93DF93EC018B0141E00E9419
:10137000D70F811109C040E0B801CE01DF91CF91B4
:101380001F910F910C94D70F81E0DF91CF911F91A6
:101390000F9108950E94FC19362F90E0FC01E4564D
:1013A000FE4F4491FC01E459FD4F2491FC01EA5D9C
:1013B000FD4F9491992309F46CC0442309F455C05E
:1013C00050E0FA013197E231F10508F04EC088276C
:1013D000EE58FF4F8F4F0C94EE17809180008F775F
:1013E00007C0809180008F7D03C080918000877F3F
:1013F000809380003AC084B58F7702C084B58F7D1A
:1014000084BD33C08091B0008F7703C08091B0005D
:101410008F7D8093B00029C0809190008F7707C0A6
:10142000809190008F7D03C080919000877F809392
:1014300090001BC08091A0008F7707C08091A00012
:101440008F7D03C08091A000877F8093A0000DC096
:10145000809120018F7707C0809120018F7D03C08C
:1014600080912001877F80932001E92FF0E0EE0F2B
:10147000FF1FEE50FE4FA591B4919FB7F894311124
:1014800004C08C912095282302C0EC912E2B2C9324
:101490009FBF08952FB7F8946091BB027091BC0272
:1014A0008091BD029091BE022FBF08958F929F92AE
:1014B000AF92BF92CF92DF92EF92FF920F931F9362
:1014C000CF93DF93EC011B8619861E821D826C83ED
:1014D0000E944A0A6B017C018C810E94F21561E036
:1014E0008C810E94CC091FB7F8948091BF028111B2
:1014F00024C0EBE5F2E08491E1EAF2E09491E82F78
:10150000F0E0EE0FFF1FE45FFD4FA591B491EC9169
:10151000E92321F461E085E30E94CC0985E30E9480
:10152000F2158CB580618CBD8CB580648CBD84E374
:101530000E94F21583E30E94F2158091BF028F5F33
:101540008093BF021FBF82E58093640510926505FA
:1015500080916405909165050E941F051AE08FEF48
:101560000E94E0041150D9F7CE010E94220520E02C
:1015700030E0A90160E0CE010E943805182F8A876B
:10158000813049F00E944A0A6C197D09613D77401B
:1015900070F381E04AC02AEA31E040E050E068E0C0
:1015A000CE010E94380582FF02C01B870CC004E0F8
:1015B0000E94E7048A870150D9F78A3A11F082E045
:1015C00034C082E08B878B85823021F0812C912C76
:1015D000540105C0812C912CA12C80E4B82E20E070
:1015E00030E0A90167E3CE010E943805A50194010E
:1015F00069E2CE010E9438058A87882349F00E945B
:101600004A0A6C197D09613D774048F388E00DC0B6
:101610008B858230E9F420E030E0A9016AE3CE0155
:101620000E943805882339F086E08D83CE010E9420
:10163000D50410E015C00E94E704807C803C11F4C2
:1016400083E08B870E94E7040E94E7040E94E7047E
:10165000CE010E94D50480E5809364051092650553
:10166000812FDF91CF911F910F91FF90EF90DF902D
:10167000CF90BF90AF909F908F900895CF93C82F39
:1016800080919505882321F080E995E00E94BB03B5
:101690006C2F86E695E00E94560A882379F066E66C
:1016A00075E082E795E00E94B009882339F080E96F
:1016B00095E00E949C1491E0811101C090E0892F77
:1016C000CF910895CF92DF92EF92FF920F931F93E5
:1016D000CF93DF93CDB7DEB7E6970FB6F894DEBFB2
:1016E0000FBECDBF8C017B011F8E1E8E88EE93E056
:1016F000A0E0B0E088A399A3AAA3BBA38EE092E0E8
:101700009D8F8C8F1EAA1DAA18A668E872E0C801DA
:101710000E94920E85E30E943E0BD7016D917C9151
:1017200041E0FE0131967F01CF010E94F014B70124
:10173000CE014C960E940214EDA9FEA9309709F43F
:1017400040C085818823E9F1CE014C960E948D012D
:10175000892B69F1CE014C960E947C094AE0B701C1
:101760000E949F17F70101900020E9F73197EE19C9
:10177000FF0951F3D8011496CD90DC901597CE0E49
:10178000DF1EB601C8010E94630E8823E9F2F8014A
:101790002081318184819581B701820F931F0E943E
:1017A000221AD8011596DC92CE921497CDCF8DA92E
:1017B0009EA9009731F00E94BB038DA99EA90E94AB
:1017C0008E18C801E6960FB6F894DEBF0FBECDBFE7
:1017D000DF91CF911F910F91FF90EF90DF90CF900D
:1017E0000895EF92FF920F931F93CF93DF93CDB79E
:1017F000DEB7E6970FB6F894DEBF0FBECDBF7C0113
:101800008B011F8E1E8E88EE93E0A0E0B0E088A3CF
:1018100099A3AAA3BBA38EE092E09D8F8C8F1EAAF2
:101820001DAA18A685E30E943E0BF7016081718115
:1018300047E1CE0101960E94F014BE016F5F7F4F19
:10184000CE014C960E940214EDA9FEA9309799F0A2
:101850008581882381F0B801CE014C960E94E70E65
:101860008DA99EA9009749F00E94BB038DA99EA94E
:101870000E948E1802C080E001C081E0E6960FB69B
:10188000F894DEBF0FBECDBFDF91CF911F910F91B6
:10189000FF90EF9008951F920F920FB60F921124B0
:1018A0002F933F938F939F93AF93BF938091BB02EE
:1018B0009091BC02A091BD02B091BE023091BA02DB
:1018C00023E0230F2D3720F40196A11DB11D05C083
:1018D00026E8230F0296A11DB11D2093BA02809322
:1018E000BB029093BC02A093BD02B093BE02809154
:1018F000B6029091B702A091B802B091B9020196D8
:10190000A11DB11D8093B6029093B702A093B802B7
:10191000B093B902BF91AF919F918F913F912F9159
:101920000F900FBE0F901F901895CF92DF92EF92FD
:10193000FF920F931F93CF93DF936C017A018B017A
:10194000C0E0D0E0CE15DF0581F0D8016D918D01AA
:10195000D601ED91FC910190F081E02DC601199521
:10196000892B11F02196EECF7E01C701DF91CF9137
:101970001F910F91FF90EF90DF90CF900895FC01A1
:10198000538D448D252F30E0842F90E0821B930BE4
:10199000541710F0CF96089501970895FC01918D8A
:1019A000828D981761F0828DDF01A80FB11D5D96C1
:1019B0008C91928D9F5F9F73928F90E008958FEF2F
:1019C0009FEF0895FC01918D828D981731F0828DE3
:1019D000E80FF11D858D90E008958FEF9FEF08953A
:1019E000FC01918D228D892F90E0805C9F4F821B9E
:1019F00091098F739927089587EC94E00E94F00C69
:101A000021E0892B09F420E0822F0895FC01848DC8
:101A1000DF01A80FB11DA35ABF4F2C91848D90E018
:101A200001968F739927848FA689B7892C93A089F3
:101A3000B1898C91837080648C93938D848D98137D
:101A400006C00288F389E02D80818F7D8083089510
:101A5000EF92FF920F931F93CF93DF93EC0181E0FE
:101A6000888F9B8D8C8D981305C0E889F9898081BA
:101A700085FD26C0F62E0B8D10E00F5F1F4F0F73F4
:101A80001127E02E8C8DE8120CC00FB607FCFACFA0
:101A9000E889F989808185FFF5CFCE010E94060D86
:101AA000F1CF8B8DFE01E80FF11DE35AFF4FF0825D
:101AB0009FB7F8940B8FEA89FB89808180620AC006
:101AC0009FB7F894EE89FF896083E889F98980815E
:101AD0008370806480839FBF81E090E0DF91CF912D
:101AE0001F910F91FF90EF900895CF93DF93EC013A
:101AF000888D8823C9F0EA89FB89808185FD05C02E
:101B0000A889B9898C9186FD0FC00FB607FCF5CF67
:101B1000808185FFF2CFA889B9898C9185FFEDCFAF
:101B2000CE010E94060DE7CFDF91CF91089580E0AE
:101B300090E0892B21F00E94FC0C811125C080E0EF
:101B400090E0892B41F080E090E0892B21F00E9409
:101B5000000081111CC080E090E0892B41F080E002
:101B600090E0892B21F00E940000811113C080E0D9
:101B700090E0892BA1F080E090E0892B81F00E9419
:101B8000000081110AC008950E940000D8CF0E9471
:101B90000000E1CF0E940000EACF0C9400000895FD
:101BA0000F934091C3045091C4046091C504709197
:101BB000C604411551056105710599F0082F21EC06
:101BC00032E08091C1049091C2040E941B068823D8
:101BD00049F01092C3041092C4041092C5041092EC
:101BE000C60481E00F910895FF920F931F93CF9346
:101BF000DF93EC018D81813011F58C8181FF1FC055
:101C000082FF0DC04B895C896D897E898A859B85A1
:101C1000AC85BD8584179507A607B70799F4009191
:101C2000C1041091C204C8010E9422050E94E70469
:101C3000F82EC8010E94D5048FEFF81649F080E015
:101C400090E02AC0CE010E9426028111E8CFF7CF92
:101C50008C8185FF08C060E0CE010E94D9018C8193
:101C60008F7D8C83ECCF4091C3045091C40460916C
:101C7000C5047091C604452B462B472B21F080E00C
:101C80000E94D00DDCCF80618C832A853B8531702A
:101C900080E092E0821B930BDF91CF911F910F9117
:101CA000FF900895CF93DF931F92CDB7DEB769837E
:101CB00041E050E0BE016F5F7F4F0E948B060F90A6
:101CC000DF91CF9108950F931F93CF93DF93EC0192
:101CD00088819981009729F02A813B81261737074F
:101CE00088F48B016F5F7F4F0E941719009761F096
:101CF000998388831B830A832C813D81232B11F4D4
:101D0000FC01108281E001C080E0DF91CF911F9142
:101D10000F910895FC0180819181009711F00C943E
:101D20008E180895EF92FF920F931F93CF93DF9336
:101D3000EC01198218821B821A821D821C82611595
:101D4000710549F18B01FB0101900020E9F7319702
:101D50007F01E61AF70AB7010E94630E28813981D4
:101D600081110DC02115310519F0C9010E948E188D
:101D7000198218821D821C821B821A820CC0FD826D
:101D8000EC82B801C901DF91CF911F910F91FF90B3
:101D9000EF900C94221ADF91CF911F910F91FF9039
:101DA000EF9008956115710579F0FB010190002015
:101DB000E9F73197AF01461B570BDC01ED91FC9120
:101DC0000280F381E02D199480E090E008950F9354
:101DD0001F93CF93DF93EC01FB0144815581608118
:101DE0007181E881F9810280F381E02D19958C01E0
:101DF00066E872E0CE010E94D20E800F911FDF9143
:101E0000CF911F910F9108951F920F920FB60F92CD
:101E100011240BB60F922F933F934F935F936F93C1
:101E20007F938F939F93AF93BF93EF93FF9387EC31
:101E300094E00E94060DFF91EF91BF91AF919F91A9
:101E40008F917F916F915F914F913F912F910F9063
:101E50000BBE0F900FBE0F901F9018951F920F9200
:101E60000FB60F9211240BB60F922F938F939F935F
:101E7000EF93FF93E091D704F091D8048081E09133
:101E8000DD04F091DE0482FD12C090818091E004B7
:101E90008F5F8F732091E104821751F0E091E0048D
:101EA000F0E0E953FB4F958F8093E00401C08081FF
:101EB000FF91EF919F918F912F910F900BBE0F90FB
:101EC0000FBE0F901F9018950F93CF939091C00263
:101ED0009923F9F0C82F40910002509101026091BE
:101EE000020270910302082F21EC32E08091C104BC
:101EF0009091C2040E941B06811102C080E00AC0BA
:101F0000CC2339F08C2F0E94D00D8823B9F3109286
:101F1000C00281E0CF910F9108958F929F92AF926E
:101F2000BF92EF92FF920F931F93CF934B015C01EF
:101F3000C42F8091000290910102A0910202B09101
:101F4000030288159905AA05BB0509F181E00E94E5
:101F5000640F811102C080E020C081ECE82E82E095
:101F6000F82E00E012E020E030E0B501A4018091FD
:101F7000C1049091C2040E948705882361F3809276
:101F8000000290920102A0920202B092030280919C
:101F9000C002C82BC093C00281E0CF911F910F9166
:101FA000FF90EF90BF90AF909F908F9008958F9289
:101FB0009F92AF92BF92CF92DF92EF92FF920F93D8
:101FC0001F93CF93DF93EC01142F7093C20460939F
:101FD000C104442369F1453010F080E0F2C040E0D4
:101FE00060E070E0CB010E948D0F8823B1F320E107
:101FF000129FA00111244F545D4FFA01E254FE4F8D
:1020000080818F7751F73C9680819181A281B38145
:1020100084369105A105B10500F33497C080D180C5
:10202000E280F380C114D104E104F10421F4D5CF9E
:10203000C12CD12C760140E0C701B6010E948D0F62
:10204000882359F28091CC029091CD028115924063
:1020500021F69091D102992309F4BFCF2091CF02AC
:102060003091D002232B09F4B8CF8091CE0288237F
:1020700009F4B3CF9A8B8C831D8690E041E050E049
:102080002D85E22FBA01022E02C0660F771F0A9437
:10209000E2F78617970731F031E0320F3D8728309D
:1020A00078F39BCF2091D7023091D80221153105CA
:1020B00019F040E050E008C02091E5023091E602BE
:1020C0004091E7025091E8022D833E834F83588769
:1020D0008091CF029091D00246015701880E991E3F
:1020E000A11CB11C8B8A9C8AAD8ABE8A0091D20247
:1020F0001091D302198F088FA091D102B0E00E94F5
:10210000D417860E971EA81EB91E8A8E9B8EAC8E83
:10211000BD8E85E0000F111F8A95E1F701501E4F1B
:10212000012F11270695800E911EA11CB11C8E86D1
:102130009F86A88AB98A2091D4023091D5022115B0
:10214000310521F0A90160E070E008C04091E10292
:102150005091E2026091E3027091E402D701C6015E
:1021600088199909AA09BB09840F951FA61FB71FD3
:1021700004C0B695A79597958795EA95D2F7898774
:102180009A87AB87BC87853F2FE09207A105B105F1
:1021900010F48CE014C0853F9F4FA105B10510F4E9
:1021A00080E10DC08091ED029091EE02A091EF02CE
:1021B000B091F0028A8F9B8FAC8FBD8F80E28F8BA6
:1021C00081E0DF91CF911F910F91FF90EF90DF9011
:1021D000CF90BF90AF909F908F9008954F925F9255
:1021E0006F927F928F929F92AF92BF92CF92DF9227
:1021F000EF92FF920F931F93CF93DF93EC01423046
:1022000051056105710510F480E078C089859A85D3
:10221000AB85BC850196A11DB11D84179507A60746
:10222000B70790F3CB88DC88ED88FE888F898031F2
:1022300029F4BB27A72F962F852F09C0DB01CA01E0
:10224000E7E0B695A79597958795EA95D1F7480168
:1022500059012A013B01C80ED91EEA1EFB1E8091BE
:10226000000290910102A0910202B0910302C816EF
:10227000D906EA06FB0681F48F898031A9F4B301FF
:10228000A201552766277727440F551FFA01EF5300
:10229000FD4F9182808219C040E0C701B6010E94C3
:1022A0008D0F8111E9CFB0CFB301A2014F77552730
:1022B00066277727440F551F440F551FFA01EF5328
:1022C000FD4F80829182A282B3828091C0028160A0
:1022D0008093C0028A89823080F08D819E81AF8197
:1022E000B885C80ED91EEA1EFB1EC092C304D09248
:1022F000C404E092C504F092C60481E0DF91CF915E
:102300001F910F91FF90EF90DF90CF90BF90AF9013
:102310009F908F907F906F905F904F9008958F92D5
:102320009F92AF92BF92CF92DF92EF92FF920F9364
:102330001F93CF93DF93FC0181859285A385B4859C
:102340000196A11DB11D84179507A607B70710F4C4
:1023500080E05BC083889488A588B68887898031AF
:1023600029F4BB27A72F962F852F09C0DB01CA01AF
:10237000C7E0B695A79597958795CA95D1F7E901D6
:102380006A017B018F01BC01CD01680D791D8A1D99
:102390009B1D8090000290900102A0900202B090DC
:1023A0000302681579058A059B0591F4F801878970
:1023B0008031A1F4DD24EE24FF24C601880F991F8B
:1023C000FC01EF53FD4F80819181A0E0B0E018C087
:1023D00040E00E948D0F8111E9CFBACFE894C7F891
:1023E000DD24EE24FF24C601880F991F880F991F52
:1023F000FC01EF53FD4F80819181A281B381BF70B9
:1024000088839983AA83BB8381E0DF91CF911F9159
:102410000F91FF90EF90DF90CF90BF90AF909F9083
:102420008F9008952F923F924F925F926F927F927A
:102430008F929F92AF92BF92CF92DF92EF92FF92D4
:102440000F931F93CF93DF93CDB7DEB72B970FB6C4
:10245000F894DEBF0FBECDBF7C01FE013196CE01E8
:102460000C966F0130E23193E817F907E1F7DA01D2
:1024700030E087E09D91992331F19E3231F48A302A
:1024800009F46DC138E08AE0F5CFE2EEF1E0449165
:10249000442321F031969413FACF61C1831708F4D5
:1024A0005EC14FED490F4E3508F059C141E0430F71
:1024B000F601E30FF11D3FE9390F3A3108F490526C
:1024C0009083342FD7CF8981803209F448C1322ECE
:1024D0008B01DB015B968D919C915C97F701948F4A
:1024E000838F16961D921D921D921C921997FB01C7
:1024F0001286138614861586B12CF8018285938581
:10250000A485B5854389548965897689841795079B
:10251000A607B70708F05BC025E0B695A795979585
:1025200087952A95D1F7F82FFF70AF2ED801159611
:102530008C91823008F413C1C8010E94930897FD62
:102540000EC1F80182859385A485B5854F96A11D9E
:10255000B11D82879387A487B587F0E2AF9EB00153
:1025600011246F537D4F6115710509F4F8C0DB012B
:102570008C91882319F0853EC1F4F3C0B1100EC0D0
:10258000F701A28A8091000290910102A0910202BB
:10259000B091030286879787A08BB18BDB018C916A
:1025A000882399F0BB24B394A8CF4BE050E0C60138
:1025B0000E94011A892B09F0A0CF832D80738033EC
:1025C00009F4CDC0432D6A2DC6C0BB24B394832D1E
:1025D0008271823109F0C3C0BB20C1F0F70166856A
:1025E00077858089918941E00E948D0F882309F4C5
:1025F000B6C0D70152968C91B0E28B9FC0011124D6
:102600008F539D4F009709F079C0A9C0F8018581CB
:10261000823009F4A4C0C8010E94C803882309F4C9
:102620009EC0D8015B96ED91FC915C9716968D90BB
:102630009D90AD90BC901997B2E08B1A9108A108BB
:10264000B108058404C0880C991CAA1CBB1C0A9400
:10265000D2F786859785A089B189880E991EAA1E12
:10266000BB1E2480E1E08E1A9108A108B108222047
:1026700011F124013501420C511C611C711C81E0D7
:102680000E94640F882309F46AC0E1ECF2E0119221
:1026900024E0E13CF207D9F7409200025092010297
:1026A00060920202709203028091C0028160809366
:1026B000C0022A94DCCFD8015B96ED91FC915C9727
:1026C00080E092E0A0E0B0E0058404C0880F991F8C
:1026D000AA1FBB1F0A94D2F7F80143895489658960
:1026E0007689840F951FA61FB71F838B948BA58BAC
:1026F000B68BD70152961C9281EC92E020E2FC014D
:1027000011922A95E9F72BE0F601DC0101900D9278
:102710002A95E1F721E238E2DC0151963C932E93B1
:10272000509740E058E01F965C934E931E97539647
:102730003C932E93529759963C932E9358975796C5
:102740005C934E93569781E00E94640F882339F082
:10275000432DF7016289C7010E94BD0205C080E0D8
:1027600003C0B1101FCF0CCF2B960FB6F894DEBF6D
:102770000FBECDBFDF91CF911F910F91FF90EF90D2
:10278000DF90CF90BF90AF909F908F907F906F9091
:102790005F904F903F902F900895EF92FF920F938C
:1027A0001F93CF93DF93EC017B018A011B821A8276
:1027B00088EE93E0A0E0B0E08C839D83AE83BF837E
:1027C0008EE092E0998388838DE190E00E94F61775
:1027D0009A8F898F009779F02DE1F701DC01019044
:1027E0000D922A95E1F74CE050E0B801CE010C962D
:1027F0000E94291A188EDF91CF911F910F91FF909F
:10280000EF900895CF93DF93FB0122813381DC01A8
:1028100013963C932E93129744815581668177815C
:1028200014964D935D936D937C93179740855185D6
:102830006285738518964D935D936D937C931B977A
:102840001C96EF012C969C01275E3F4F49914D93BA
:10285000A217B307D9F7218D328DFC01328F218F5A
:10286000DF91CF9108954F925F926F927F92AF92D6
:10287000BF92CF92DF92EF92FF920F931F93CF936D
:10288000DF9300D01F92CDB7DEB78C0149835A8306
:102890006B837C835901C12CD12C7601412C82E0C1
:1028A000582E612C712C49815A816B817C819E014B
:1028B0002F5F3F4FC8010E948F11882351F1D30130
:1028C000C201F801058404C0880F991FAA1FBB1F0D
:1028D0000A94D2F7C80ED91EEA1EFB1E49815A81FE
:1028E0006B817C818789803129F088EF9FEFAFEF82
:1028F000BFE004C088EF9FEFA0E0B0E048175907A1
:102900006A077B0780F2F501C082D182E282F382FE
:1029100081E00F900F900F900F90DF91CF911F915A
:102920000F91FF90EF90DF90CF90BF90AF907F908E
:102930006F905F904F900895CF93DF93FC012581B6
:10294000222311F080E049C0EC018091890580319B
:10295000C1F482E08583178A108E118E128E8091C9
:102960008A0590918B05A0E0B0E025E0880F991FC3
:10297000AA1FBB1F2A95D1F7838B948BA58BB68B8F
:1029800019C08032F9F683E0858340918C0550911F
:102990008D0560918E0570918F05478B508F618FEB
:1029A000728F9F012D5E3F4F82E795E00E943314A6
:1029B000882341F282E795E09C8F8B8F81E08C83A6
:1029C0001E821F82188619861A861B861C861D8603
:1029D0001E861F86188A198A1A8ADF91CF91089558
:1029E0002F923F924F925F926F927F928F929F921F
:1029F000AF92BF92CF92DF92EF92FF920F931F930D
:102A0000CF93DF93CDB7DEB7C756D1090FB6F89491
:102A1000DEBF0FBECDBF6C015B01A6964FAFA69780
:102A200019A218A284E492E09F8F8E8F1BA21C82B1
:102A30001B829A8389831E824E018EE1880E911C2F
:102A4000C4010E949C1475018E010F5F1F4F240169
:102A500018016FE270E0C7010E94171A009709F48D
:102A600042C0F70120812F3221F4FFEFEF1AFF0A55
:102A7000F0CF8E198D3008F08CE0682E712CA301F8
:102A8000B701CE01885A9F4F0E94291AE8E5F0E06D
:102A9000EC0FFD1FE60DF71D1082C8010E94BB035D
:102AA000F8018581882351F01EAE1DAE84E492E0CA
:102AB0009CAF8BAF21961FAE219721C021E0AE01C4
:102AC000485A5F4FB201C8010E941212882361F375
:102AD000E60CF71CC2010E94BB03942D852D280132
:102AE000092F182FB6CFC7018A199B09A8969FAF47
:102AF0008EAFA897B201CE01CB960E944208A8964D
:102B0000EEADFFADA897AE0EBF1EF501808181111D
:102B100009C0BE01655C7F4FC1010E94420841EBC4
:102B200052E041C019A218A284E492E09F8F8E8FD8
:102B30001BA221968FAD2197811113C0F60113823C
:102B4000128288EE93E0A0E0B0E084839583A683B0
:102B5000B7838EE092E091838083128E118E14866B
:102B600026C0A6962FADA697A501BE01655C7F4F36
:102B7000C4010E941212882309F3CE01CB960E9451
:102B8000BB03A6968FADA6978670863039F449A907
:102B90005AA96BA97CA9C4010E942602B401C101F3
:102BA0000E944208A501B101C6010E94CD13C601D1
:102BB000C959DF4F0FB6F894DEBF0FBECDBFDF910E
:102BC000CF911F910F91FF90EF90DF90CF90BF902A
:102BD000AF909F908F907F906F905F904F903F90BD
:102BE0002F90089590E0FC01E459FD4F2491FC01E1
:102BF000EA5DFD4F8491882399F090E0880F991F3A
:102C0000FC01E45FFD4FA591B491FC01EE50FE4F35
:102C1000859194918FB7F894EC91E22BEC938FBF50
:102C20000895CF93DF93CDB7DEB7AD970FB6F89485
:102C3000DEBF0FBECDBF789484B5826084BD84B5FD
:102C4000816084BD85B5826085BD85B5816085BDA7
:102C500080916E00816080936E001092810080915F
:102C600081008260809381008091810081608093E7
:102C70008100809180008160809380008091B1000C
:102C800084608093B1008091B00081608093B00037
:102C90008091910082608093910080919100816089
:102CA000809391008091900081608093900080914A
:102CB000A10082608093A1008091A1008160809337
:102CC000A1008091A00081608093A00080912101EB
:102CD0008260809321018091210181608093210194
:102CE0008091200181608093200180917A0084602E
:102CF00080937A0080917A00826080937A0080913C
:102D00007A00816080937A0080917A008068809355
:102D10007A001092C100E091D704F091D80482E0CB
:102D20008083E091D304F091D4041082E091D50423
:102D3000F091D6048FEC80831092DF04E091DB04E5
:102D4000F091DC0486E08083E091D904F091DA040C
:102D5000808180618083E091D904F091DA048081E0
:102D600088608083E091D904F091DA0480818068E2
:102D70008083E091D904F091DA0480818F7D808393
:102D800065E38DEC95E00E94560A811180C06DECE0
:102D900075E08FEA95E00E94B009811178C068E57E
:102DA00072E087EC94E00E94D20E66E872E087EC55
:102DB00094E00E94D20E8091D805823039F08330A1
:102DC00041F0813049F469E872E008C06DE872E0D2
:102DD00005C061E972E002C066E972E0CE010196C9
:102DE0000E94920EBE016F5F7F4F87EC94E00E94BD
:102DF000E70ECE0101960E948A0E6AE972E0CE01CA
:102E000082960E94920E68EA72E0CE0188960E9435
:102E1000920EBE016E5D7F4FCE0188960E94F10B2F
:102E200019A2805D88A3BE01605E7F4F87EC94E0AD
:102E30000E94D20E66E872E087EC94E00E94D20E07
:102E4000CE0188960E948A0ECE0182960E948A0E3A
:102E500068EA72E0CE0182960E94920EBE016E5D1B
:102E60007F4FCE0101960E94620BBE016F5F7F4FC4
:102E700087EC94E00E94E70ECE0101960E948A0E34
:102E8000CE0182960E948A0E0E94970DFDCF62E7C6
:102E900072E087CFE7ECF4E01382128288EE93E0D1
:102EA000A0E0B0E084839583A683B78382E392E0B9
:102EB0009183808385EC90E09587848784EC90E013
:102EC0009787868780EC90E0918B808B81EC90E0F7
:102ED000938B828B82EC90E0958B848B86EC90E0D8
:102EE000978B868B118E128E138E148EE4E6F5E08E
:102EF00080E580831182E6E6F5E015821682118670
:102F0000138682E090E0A0E0B0E084879587A687F2
:102F1000B78713A215A614A624E432E033A722A78C
:102F200017A6EDECF5E01582168211861386EFEAFE
:102F3000F5E080839183A283B383178A0895BB272A
:102F40004A3031F4992322F4BDE2909581959F4F48
:102F50000C94AB17BB27FB015527AA27880F991F95
:102F6000AA1FA41710F0A41B83955051B9F7A05DB8
:102F7000AA3308F0A95DA193009779F7B111B19335
:102F80001192CB010C94C417DC01FC01672F7191E5
:102F90007723E1F7329704C07C916D93708362913F
:102FA000AE17BF07C8F308950E94DF17A59F900DC5
:102FB000B49F900DA49F800D911D11240895A29F90
:102FC000B001B39FC001A39F700D811D1124911DFD
:102FD000B29F700D811D1124911D0895EE0FFF1FEA
:102FE000881F8BBF0790F691E02D19940F931F93C4
:102FF000CF93DF938230910510F482E090E0E0916E
:10300000DB05F091DC0520E030E0A0E0B0E0309797
:1030100019F1408151810281138148175907C8F085
:103020008417950769F4109731F012960C93129754
:1030300013961C9327C00093DB051093DC0522C078
:103040002115310519F04217530718F49A01BD01F3
:10305000EF01DF01F801DBCF21153105F9F0281B65
:10306000390B2430310580F48A819B81611571050B
:1030700021F0FB019383828304C09093DC0580934D
:10308000DB05FE01329644C0FE01E20FF31F81937F
:10309000919322503109398328833AC02091D90570
:1030A0003091DA05232B41F420910602309107027A
:1030B0003093DA052093D90520910402309105025E
:1030C0002115310541F42DB73EB7409108025091CA
:1030D0000902241B350BE091D905F091DA05E217BE
:1030E000F307A0F42E1B3F0B2817390778F0AC012B
:1030F0004E5F5F4F2417350748F04E0F5F1F509308
:10310000DA054093D9058193919302C0E0E0F0E0A5
:10311000CF01DF91CF911F910F910895CF93DF934E
:10312000009709F481C0FC01329713821282A091AA
:10313000DB05B091DC05109781F420813181820F8D
:10314000931F2091D9053091DA052817390751F5D9
:10315000F093DA05E093D90567C0ED0120E030E097
:10316000CE17DF0740F44A815B819E01411551056E
:10317000F1F0EA01F5CFD383C28340815181840FFE
:10318000951FC817D90759F488819981840F951F15
:103190000296918380838A819B8193838283211508
:1031A000310529F4F093DC05E093DB053DC0E9012E
:1031B000FB83EA8349915991C40FD51FEC17FD0792
:1031C00061F480819181840F951F0296E9019983B2
:1031D0008883828193819B838A83E0E0F0E012966A
:1031E0008D919C911397009719F0FD01DC01F7CFA9
:1031F0008D919C9111979D012E5F3F4F820F931FE0
:103200002091D9053091DA052817390769F43097EC
:1032100029F41092DC051092DB0502C013821282A1
:10322000B093DA05A093D905DF91CF9108956F92FD
:103230007F928F929F92AF92BF92CF92DF92EF9246
:10324000FF920F931F93CF93DF93009789F4CB01E5
:10325000DF91CF911F910F91FF90EF90DF90CF9072
:10326000BF90AF909F908F907F906F900C94F617C7
:10327000FC01E60FF71F9C0122503109E217F3070A
:1032800008F4A9C0EC01D9010D911C911197061702
:103290001707B0F00530110508F49BC0C80104976A
:1032A0008617970708F495C002501109061B170BE3
:1032B000019311936D937C93CF010E948E1889C066
:1032C0005B01A01AB10A4C01800E911EA091DB0592
:1032D000B091DC05612C712CE12CF12C109709F4D4
:1032E00046C08D919C911197A815B905B1F56C0157
:1032F00042E0C40ED11CCA14DB0478F14C018A18D8
:103300009B08640142E0C40ED11C1296BC90129737
:103310001396AC91B5E0CB16D10440F0B282A383F2
:1033200091828082D9016D937C9309C00E5F1F4FFB
:10333000800F911FF90191838083EB2DFA2FE11407
:10334000F10431F0D7011396FC93EE93129741C02C
:10335000F093DC05E093DB053CC06816790608F4C1
:103360003C017D0112960D90BC91A02DB7CF8091AC
:10337000D9059091DA0588169906E1F46616770664
:10338000C8F48091040290910502009741F48DB732
:103390009EB74091080250910902841B950BE817D3
:1033A000F907C8F4F093DA05E093D905F9017183C0
:1033B00060830FC0CB010E94F6177C01009759F083
:1033C000A801BE010E940E1ACE010E948E18C701EC
:1033D00004C0CE0102C080E090E0DF91CF911F9148
:1033E0000F91FF90EF90DF90CF90BF90AF909F90A4
:1033F0008F907F906F90089581E090E0F8940C9406
:10340000381AFB01DC0104C08D910190801921F470
:1034100041505040C8F7881B990B0895FB01DC010F
:1034200002C001900D9241505040D8F70895FC0120
:103430008191861721F08823D9F79927089531972C
:10344000CF010895FB01DC0101900D920020E1F70E
:103450000895FB01DC014150504048F001900D926D
:103460000020C9F701C01D9241505040E0F7089577
:04347000F894FFCFFE
:10347400FFFFFFFF0000DD05200000000000BF018A
:103484002608AE011D028D017C098609000000009A
:10349400CA09950CD601D501CA09CA09CA0900008E
:1034A4000000280D950CBF0C750DF00CCE0CE20C31
:1034B40000000000520E950CF40DD5010000000030
:1034C400CA09950CD601D501534420436172642086
:1034D4006973206E6F74206D6F756E7465642E2E23
:1034E4002E0053442043617264206973206D6F750C
:1034F4006E74656421000D0A005344310053443254
:103504000053444843004E2F610074657374206D6A
:103514006573736167652100746573742E747874C0
:04352400002F000074
:00000001FF
