:100000000C94AF050C94E0050C94E0050C94E0050D
:100010000C94E0050C94E0050C94E0050C94E005CC
:100020000C94E0050C94E0050C94E0050C94E005BC
:100030000C94E0050C94E0050C94E0050C94E005AC
:100040000C94E0050C94E0050C94E0050C94E0059C
:100050000C94E0050C94E0050C94E0050C942B2620
:100060000C94E0050C9432140C9408140C94E005E4
:100070000C94E0050C94E0050C94E0050C94E0056C
:100080000C94E0050C94E0050C94E0050C94E0055C
:100090000C94E0050C94E0050C94E0050C94DF143E
:1000A0000C94E0050C94E0050C94E0050C94E0053C
:1000B0000C94E0050C94E0050C94E0050C94E0052C
:1000C0000C94E0050C94E0050C94E0050C94E0051C
:1000D0000C94E0050C94E0050C94E0050C94E0050C
:1000E0000C94E0051A251D250C25102516255425F0
:1000F000212525252B252F25332539253D2541254E
:10010000542547254B254F2507634236B79BD8A773
:100110001A39685618AEBAAB558C1D3CB7CC57632C
:10012000BD6DEDFD753EF6177231BF000000803FDA
:1001300008000000BE922449123EABAAAA2ABECDF6
:10014000CCCC4C3E00000080BEABAAAAAA3E000068
:100150000000BF000000803F000000000008417860
:10016000D3BB4387D1133D190E3CC3BD4282AD2B97
:100170003E68EC8276BED98FE1A93E4C80EFFFBE8F
:1001800001C4FF7F3F00000000000C9447250C9441
:1001900076120C944B250C9475120C945E110C94F1
:1001A0003D250C9475260C94A40B0C949A120C9477
:1001B000CF120C942A060C942B060C94400F0C942E
:1001C00077120C9474120C942F250C944A110C94F1
:1001D0002B250C94DE300C941C0C0C9411110C94F7
:1001E00010250C94A2120C9441250C9429240C94F3
:1001F000F5100C94E2050C944F250C9414060C9405
:1002000054250C9416250C9421250C941D250C9432
:1002100086120C9433250C94AE0B0C94E4100C94C1
:1002200025250C9439250C946C110C943B110C94DD
:100230000C250C94A4110C941A250C94F1110C9417
:10024000030600407A10F35A00A0724E18090010FD
:10025000A5D4E80000E87648170000E40B5402003B
:1002600000CA9A3B000000E1F50500008096980066
:10027000000040420F000000A0860100000010278F
:1002800000000000E803000000006400000000001F
:100290000A00000000000100000000002C76D88851
:1002A000DC674F0823DFC1DFAE59E1B1B796E5E364
:1002B000E453C63AE651997696E8E6C28426EB897D
:1002C0008C9B62ED407C6FFCEFBC9C9F40F2BAA51A
:1002D0006FA5F490055A2AF75C936B6CF9676DC1B2
:1002E0001BFCE0E40D47FEF520E6B500D0ED902EB6
:1002F0000300943577050080841E080000204E0A14
:10030000000000C80C333333330F986E1283114151
:10031000EF8D2114893BE65516CFFEE6DB18D1841C
:100320004B381BF77C1D901DA4BBE4242032847243
:100330005E228100C9F124ECA1E53D277C3C3E5EB4
:100340002B3D3F2F5B5D3B2C2A225C0000002000F0
:100350002300260029002C002F003200000100009D
:1003600003010601090100000A0B02090C0D0E0829
:10037000070304010000000000000000000000006E
:10038000000000000000000000000000000000006D
:10039000000012111000000000000000000000002A
:1003A000000000000000000000000000010210201A
:1003B000200808102040102040800201020108049B
:1003C000020101020408102040808040201008042F
:1003D0000201800402018040201008040201080488
:1003E00002010102040810204080010204081020CC
:1003F000408000002200250028002B002E00310044
:10040000340002010000050108010B010505050586
:10041000070508080808020202020A0A080804047C
:1004200004040101010101010101030303030303AA
:100430000303040707070C0C0C0C0C0C0C0C020239
:10044000020206060606060606060B0B0B0B0B0B36
:100450000B0BE0001400E1007700E5001F00D7005F
:100460000300DA001000E0000000FF0001000400BB
:100470000800FF00FF00FF00000005000000DA0098
:100480001000D7000300DF000000330080003C00B4
:100490004000E100770000000000FF00FF00FF00C7
:1004A00000002C00FF002E00DF00FF0001003C00D8
:1004B00032001100000009000200040028001300AF
:1004C000E500140048002C000C00330078003A00CE
:1004D00033003B00FB003E0000004300110016000B
:1004E0001000390092003500DA0022001A003700AF
:1004F000C300230000003400C00036001A000600CC
:1005000088000700C0000D0087000E0041004C006D
:100510000000480000005B000000420003004A00A9
:1005200081002100990024004000250038002600A9
:1005300082005C0000006300000061007000620047
:1005400080007C00050020008000280030006C0046
:1005500000006D0080006E0000007000020071005D
:1005600094007300C1001200400017001100180031
:100570004300190000001A004B0032000900370048
:10058000C0004F0060005000A8006D0000003D005A
:10059000380046003F004F0060000C003C00FF00A8
:1005A0000000E5007F00F900C00041002400E000E9
:1005B00014007600FF003300A0004200200043003A
:1005C00018004C0000008700D50088003F00D700CD
:1005D0000300D9001000D3008200C8000800C90041
:1005E00080007C0000007D0000007C0003007D0096
:1005F00048007D0048007C0008007D0020007D0050
:1006000010007D000E009000000091000E0091008F
:100610001A009100310091005A0091006900910088
:10062000750091007E009100880091008F0091007C
:1006300096009100A3009100AF009100C4009100CA
:10064000D7009100E8009100200092000000930084
:1006500006009300E300930005009300050093005B
:10066000000093000400930000009300000093003A
:10067000000093000000930000009300000093002E
:1006800000009600000097000800970019009700EE
:10069000020097000C00970024009700300097009C
:1006A0002800970026009700020097009800970006
:1006B00080009700000097000000C300ED00A40038
:1006C0000000A8000000C5001100C6005100BF00D6
:1006D0008000C7001000B6006600B800A500B70093
:1006E0006400B9007C00B300AF00B4009700B5000F
:1006F000FF00B000C500B1009400B2000F00C400BC
:100700005C00C0006400C1004B008C00000086004B
:100710003D00500000005100C800520096005300F8
:10072000000054000000550000005A00C8005B00A3
:1007300096005C000000D3000000C300ED007F00C5
:100740000000DA000000E5001F00E1006700E000A3
:100750000000DD007F000500000012004000D30013
:100760000400C0001600C10012008C0000008600CA
:100770003D005000000051002C00520024005300A6
:10078000000054000000550000005A002C005B00DF
:1007900024005C000000FF00FF00FF0000002C00B0
:1007A000FF002E00DF00FF0001003C0032001100BE
:1007B0000000090002000400A8001300E500140076
:1007C00048002C000C00330078003A0033003B0056
:1007D000FB003E000000430011001600100039002D
:1007E00002003500880022000A0037004000230084
:1007F00000003400A0000600020006008800070088
:10080000C0000D00B7000E0001004C0000004A00BF
:1008100081002100990024004000250038002600B6
:1008200082005C00000063000000460022000C0013
:100830003A005D0055005E007D005F007D006000B5
:10084000550061007000620080007C0005002000FF
:100850008000280030006C0000006D0080006E00F9
:10086000000070000200710094007300C1003D00A0
:100870003400120004005A0057004F00BB00500023
:100880009C00FF000000E5007F00F900C00041006F
:100890002400E00014007600FF003300A0004200B6
:1008A0002000430018004C0000008700D0008800A2
:1008B0003F00D7000300D9001000D3008200C80019
:1008C0000800C90080007C0000007D0000007C0062
:1008D00003007D0048007D0048007C0008007D008A
:1008E00020007D0010007D000E00900000009100AF
:1008F0000E0091001A009100310091005A00910001
:1009000069009100750091007E00910088009100BF
:100910008F00910096009100A3009100AF0091001C
:10092000C4009100D7009100E800910020009200DF
:100930000000930006009300E3009300030093007F
:100940000300930000009300020093000000930056
:10095000000093000000930000009300000093004B
:100960000000930000009600000097000800970028
:1009700019009700020097000C00970024009700D0
:10098000300097002800970026009700020097008B
:100990009800970080009700000097000000A400D6
:1009A0000000A8000000C5001100C6005100BF00F3
:1009B0008000C7001000B6006600B800A500B700B0
:1009C0006400B9007C00B300AF00B4009700B5002C
:1009D000FF00B000C500B1009400B2000F00C400D9
:1009E0005C00A6000000A7002000A700D800A70018
:1009F0001B00A7003100A7000000A7001800A700F7
:100A00002000A700D800A7001900A7003100A70008
:100A10000000A7001800A7002000A700D800A7002A
:100A20001900A7003100A7000000A70018007F00F0
:100A30000000E5001F00E1007700DD007F00C2003C
:100A40000E00FF000000E0000400C000C800C1006C
:100A5000960086003D005100900052002C0053008B
:100A600000005400000055008800570000005000AE
:100A700092005A0050005B003C005C000000D30074
:100A80000400E0000000FF00000005000000DA00A4
:100A90000800D7000300E000000005000000FF0090
:100AA000FF00FF00010012004000170011001800B5
:100AB0004300190000001A004B00320009004F00EB
:100AC000CA005000A8005A0023006D000000390041
:100AD00012003500DA0022001A003700C30023009C
:100AE00000003400C00036001A000600880007002D
:100AF000C0000D0087000E0041004C000000FF0008
:100B00000000E0000400C0006400C1004B0086004B
:100B10003500500089005100C80052009600530073
:100B200000005400000055000000570000005A006B
:100B300050005B003C005C000000E0000000FF0093
:100B4000FF0000002100240027002A002D003000B3
:100B5000330001010000040107010A017526112478
:100B60001FBECFEFD1E2DEBFCDBF00E00CBF27E05C
:100B7000AAE5B3E001C01D92A338B207E1F713E084
:100B8000A0E0B2E0E2E6FEE600E00BBF02C00790A4
:100B90000D92AA35B107D9F715E0CFEAD5E000E00C
:100BA00006C021970109802FFE010E946730CE3ACE
:100BB000D10780E00807A9F70E9402270C942F377D
:100BC0000C940000DC015996ED91FC915A973097F6
:100BD000B9F083899489A589B6894285538564854E
:100BE0007585841B950BA60BB70B811520E8920722
:100BF000A105B10538F08FEF9FE7A0E0B0E00895C0
:100C000080E090E00895DC0159968D919C915A976F
:100C1000009739F0DC01ED91FC910480F581E02D25
:100C2000199480E090E00895CF93DF931F92CDB7A1
:100C3000DEB76983DC01ED91FC910280F381E02D48
:100C400041E050E0BE016F5F7F4F19950F90DF913B
:100C5000CF910895089580E090E008953F924F92DB
:100C60005F926F927F928F929F92AF92BF92CF923C
:100C7000DF92EF92FF920F931F93CF93DF93CDB745
:100C8000DEB72C970FB6F894DEBF0FBECDBF5C0168
:100C9000DC015B968D909C905C971696CD90DD90D4
:100CA000ED90FC901997C114D104E104F10439F0DE
:100CB000BFEFCB1ADB0AEB0AFB0A312C07C0F401A9
:100CC000C080D180E280F38033243394F4018185A5
:100CD0009285A385B4859C01AD012F5F3F4F4F4F97
:100CE0005F4F29873A874B875C87260137011D8232
:100CF0001E821F821886F40181859285A385B485A2
:100D00002D813E814F815885281739074A075B0797
:100D100008F063C089859A85AB85BC858C159D05D7
:100D2000AE05BF0550F482E0C82ED12CE12CF12C89
:100D300092E0492E512C612C712C9E012F5F3F4F68
:100D4000B701A601C4010E94B518882309F445C063
:100D500089819A81AB81BC81892B8A2B8B2B41F0B5
:100D6000260137019FEF491A590A690A790A05C015
:100D7000C414D504E604F70491F02D813E814F811F
:100D800058852F5F3F4F4F4F5F4F2D833E834F83DB
:100D900058873FEFC31AD30AE30AF30AACCF0FEF29
:100DA0001FEF2FEF3FE0B301A201C4010E9414180E
:100DB000882399F0D50116964D915D916D917C91A6
:100DC0001997411551056105710549F0930182019B
:100DD000C4010E941418811102C080E02EC0D50108
:100DE00016964D925D926D927C921997332051F038
:100DF000D301C2010196A11DB11DF401808391832D
:100E0000A283B383F5018789908DA18DB28D892B43
:100E10008A2B8B2B69F4D50157964D925D926D927A
:100E20007C925A9714968C911497806814968C93A0
:100E3000F50184818062848381E02C960FB6F8945A
:100E4000DEBF0FBECDBFDF91CF911F910F91FF90FD
:100E5000EF90DF90CF90BF90AF909F908F907F905A
:100E60006F905F904F903F9008958F929F92AF92B6
:100E7000BF92CF92DF92EF92FF920F931F93CF9387
:100E8000DF93EC018D81811102C080E078C00B8975
:100E90001C892D893E890417150726073707A8F3F3
:100EA0006A017B01823029F4CA86DB86EC86FD86E6
:100EB0000DC0C114D104E104F10451F41E821F825B
:100EC000188619861A861B861C861D8681E057C0E7
:100ED0008A849B84AC84BD84EB8DFC8D258530E0B9
:100EE000275F3F4FB501A4014150510961097109C4
:100EF000022E04C076956795579547950A94D2F7C8
:100F0000D701C6010197A109B10904C0B695A795FB
:100F1000979587952A95D2F784179507A607B7075F
:100F200020F089288A288B2871F44F89588D698D83
:100F30007A8D4E835F83688779874C015D018E01CE
:100F40000A5F1F4F16C0841B950BA60BB70BF5CF7E
:100F50004E815F816885798598018B8D9C8D0E947B
:100F6000B51891E0891A9108A108B108882309F4FD
:100F70008CCF81149104A104B10451F795CFDF9176
:100F8000CF911F910F91FF90EF90DF90CF90BF9086
:100F9000AF909F908F900895FC01DB0112968D9188
:100FA0009C9113979383828386E592E0918380835B
:100FB00014968C911497848315968C91159785833C
:100FC00016964D915D916D917C911997468357834B
:100FD000608771871A964D915D916D917C911D97F7
:100FE00042875387648775871E964D915D916D91F9
:100FF0007C91519746875787608B718B52968C9165
:101000005297828B53964D915D916D917C9156973D
:10101000438B548B658B768B57964D915D916D917B
:101020007C915A97478B508F618F728F5B968D9111
:101030009C915C97948F838F0895CF93CFB7F8944A
:1010400080915A03811127C0E1E4F4E08491E1EE3C
:10105000F3E09491E82FF0E0EE0FFF1FEE5BF44F0A
:10106000A591B491EC91E92321F461E085E30E941C
:10107000552561E085E30E9484258CB580618CBD97
:101080008CB580648CBD61E084E30E94842561E0BE
:1010900083E30E94842580915A038F5F80935A03D3
:1010A000CFBFCF9108950F931F93CF93DF93EC01A0
:1010B0008B0141E00E94FD16811109C040E0B8019A
:1010C000CE01DF91CF911F910F910C94FD1681E01D
:1010D000DF91CF911F910F910895089561E0FC0178
:1010E00084810E94552580915B03811110925B03DE
:1010F00008958EBD00000DB407FEFDCF8EB5089596
:101100008FEF0C9479080F931F93CF93DF93EB012C
:101110000E941F268B010E9480088F3F49F00E9489
:101120001F26601B710B6C177D07A8F380E001C0C0
:1011300081E0DF91CF911F910F910895CF93DF93BD
:10114000EC018E81882389F08F8198859C012F5F27
:101150003F4F38872F838230924018F40E948008D6
:10116000F3CFCE010E946E081E82DF91CF910895C9
:101170008CBD9DBD0895CF93DF93EC0180915B03FF
:10118000811109C081E080935B038091C206909138
:10119000C3060E94B80860E08C81DF91CF910C9467
:1011A00055258F929F92AF92BF92FF920F931F93FC
:1011B000CF93DF93EC01F62E49015A010E949E085D
:1011C000CE010E94BB086CE271E0CE010E94830850
:1011D0008F2D80640E94790808E110E0D501C401D8
:1011E000002E04C0B695A795979587950A94D2F7D7
:1011F0000E94790808501109083F8FEF180771F70E
:10120000FF2029F088E0F81204C087E803C085E9D0
:1012100001C08FEF0E94790810E00E9480088A8741
:1012200087FF04C01F3F11F01F5FF7CFDF91CF9101
:101230001F910F91FF90BF90AF909F908F90089556
:10124000AF92BF92CF92DF92EF92FF920F931F93D4
:10125000CF93DF93EC016901C801820F931F8130A6
:10126000924008F070C08E81882371F08881998146
:10127000AA81BB8184179507A607B70729F48F8138
:101280009885C816D906B0F5488359836A837B834D
:101290008B85833039F089E0440F551F661F771F17
:1012A0008A95D1F79A01AB0161E1CE010E94D10884
:1012B000882319F083E08D8346C00E941F265B01BE
:1012C0000E9480088A878F3F49F40E941F266A196E
:1012D0007B096D327140A0F38FE003C08E3F31F087
:1012E0008DE08D83CE010E946E082DC018861F826E
:1012F00081E08E838F8198858C159D0540F40E9436
:1013000080088F819885019698878F83F3CF670136
:10131000E00EF11EEC14FD0431F00E948008F6018D
:1013200081936F01F7CF8F819885080F191F188758
:101330000F838985882319F00115124048F0CE01EA
:101340000E949E0805C0CE010E946E0880E001C088
:1013500081E0DF91CF911F910F91FF90EF90DF908F
:10136000CF90BF90AF900895CF92DF92EF92FF920F
:101370000F93CF93DF93EC0169014115510561058E
:10138000710511F482E13EC08B85833039F089E02C
:10139000440F551F661F771F8A95D1F79A01AB013D
:1013A00068E1CE010E94D108882311F084E02AC0B0
:1013B0008EEF0E94790876018EEFD81AF70181919D
:1013C0007F010E947908CE14DF04C1F78FEF0E94DD
:1013D00079088FEF0E9479080E9480088A878F71B0
:1013E000853031F081E18D83CE010E946E080BC003
:1013F0000023D9F068E572E0CE010E9483088111D4
:1014000007C085E18D83CE010E946E0880E014C084
:1014100020E030E0A9016DE0CE010E94D1088111E9
:1014200009C00E948008811105C0CE010E946E088B
:1014300081E002C084E1E6CFDF91CF910F91FF9070
:10144000EF90DF90CF9008950F9340915D035091FE
:101450005E0360915F037091600341155105610562
:10146000710599F0082F21E633E080916105909194
:1014700062050E94B409882349F010925D0310921E
:101480005E0310925F031092600381E00F91089554
:101490000F93CF9390915C039923F9F0C82F40915B
:1014A0000002509101026091020270910302082F24
:1014B00021E633E080916105909162050E94B409B4
:1014C000811102C080E00AC0CC2339F08C2F0E9429
:1014D000240A8823B9F310925C0381E0CF910F9125
:1014E00008958F929F92AF92BF92EF92FF920F93C7
:1014F0001F93CF934B015C01C42F80910002909108
:101500000102A0910202B091030288159905AA0573
:10151000BB0509F181E00E94480A811102C080E008
:1015200020C081E6E82E83E0F82E00E012E020E003
:1015300030E0B501A40180916105909162050E949F
:101540002009882361F38092000290920102A09208
:101550000202B092030280915C03C82BC0935C032B
:1015600081E0CF911F910F91FF90EF90BF90AF90CE
:101570009F908F9008954F925F926F927F92AF925B
:10158000BF92CF92DF92EF92FF920F931F93CF9370
:10159000DF931F92CDB7DEB7FC012581222309F42A
:1015A000C1C0848180FFBEC083899489A589B68922
:1015B000428453846484758484159505A605B70513
:1015C00009F4B0C06F015201F1E0BF22D6015B9671
:1015D0008D919C915C97B301A20139E07695679556
:1015E000579547953A95D1F7223071F4FC01828DD9
:1015F000938DA48DB58D8A019B01080F191F2A1F99
:101600003B1FC901B8014AC0DC0114961C9111505E
:101610001423A114B104F9F411111DC04528462862
:10162000472851F4F6018789908DA18DB28D86836C
:101630009783A087B1870FC0D60116964D915D9113
:101640006D917C91199796012A5F3F4F0E94B518C2
:10165000882309F467C0F601238D348D8681978134
:10166000A085B1850297A109B109AC01BD01F901BD
:10167000058404C0440F551F661F771F0A94D2F7D4
:1016800086859785A089B189840F951FA61FB71FEE
:10169000BC01CD01610F711D811D911DD6011496F4
:1016A0002C9126FF0DC040900002509001026090E6
:1016B000020270900302461657066806790699F4EE
:1016C00040E00E94710A882369F1F501EF59FC4F4F
:1016D000DE0111969F012F5F3F4F2E173F0799F0B4
:1016E00081918D93FACFFE0131967F0101E010E0E8
:1016F0009501AB01BC0180916105909162050E944A
:101700002009882379F0F60182859385A485B58523
:101710000196A11DB11D82879387A487B587898112
:1017200090E002C08FEF9FEF0F90DF91CF911F915C
:101730000F91FF90EF90DF90CF90BF90AF907F9090
:101740006F905F904F900895FC01818D928D00976E
:1017500011F00C94BB0A8FEF9FEF08950F931F9326
:10176000CF93DF93FC01818D928D0097B9F0EF014B
:101770000E94BB0A8C010F3F8FEF180791F0898DF3
:101780009A8DFC01428553856485758541505109C8
:10179000610971090E943507C80105C080E090E029
:1017A00002C08FEF9FEFDF91CF911F910F910895AE
:1017B0001F93CF93DF93FC0125812223C1F1162FC4
:1017C000EC01848187FF28C06685778580899189AF
:1017D00041E00E94710A882351F1EA8980E2E89F82
:1017E000F0011124EF59FC4F309709F18D818230BF
:1017F00040F48B899C89AD89BE89848F958FA68F93
:10180000B78F8F89988DA98DBA8D938F828FB58B65
:10181000A48B8C818F778C83111103C08C818F7E78
:101820008C83812FDF91CF911F910C94480A80E027
:10183000DF91CF911F910895FF920F931F93CF9344
:10184000DF93EC018D81813011F58C8181FF1FC008
:1018500082FF0DC04B895C896D897E898A859B8555
:10186000AC85BD8584179507A607B70799F4009145
:10187000610510916205C8010E94BB080E948008A2
:10188000F82EC8010E946E088FEFF81649F080E02C
:1018900090E02AC0CE010E9435078111E8CFF7CF32
:1018A0008C8185FF08C060E0CE010E94D80B8C813E
:1018B0008F7D8C83ECCF40915D0350915E036091EE
:1018C0005F0370916003452B462B472B21F080E08E
:1018D0000E94240ADCCF80618C832A853B8531708D
:1018E00080E092E0821B930BDF91CF911F910F91CB
:1018F000FF9008958F929F92AF92BF92CF92DF9206
:10190000EF92FF920F931F93CF93DF9300D01F921C
:10191000CDB7DEB77C0180E2689FF0011124EF595A
:10192000FC4F9385917121F0842F827409F08FC050
:10193000142FD70152966C93529740910002509108
:10194000010260910202709103021E964D935D9315
:101950006D937C9351974489558960E070E0BA019A
:1019600055274427828D938DA0E0B0E0482B592B5A
:101970006A2B7B2BD70157964D935D936D937C9388
:101980005A978385887159F4848D958DA68DB78D6E
:10199000F701838B948BA58BB68B81E012C08031CD
:1019A00009F055C097012D5E3F4FD7015B968D9191
:1019B0009C915C970E948A1A882309F448C084E0AD
:1019C000F7018583812F8F70D70114968C9314971C
:1019D000F70116821782108611861A961D921D92A3
:1019E0001D921C921D9716FF34C015968C91813064
:1019F00071F511FF2CC0F7014389548965897689F7
:101A0000452B462B472B09F462C040E050E0BA0159
:101A1000C7010E9435078823D1F0F7018788908C91
:101A2000A18CB28CC38CD48C82E090E0A0E0B0E0BA
:101A3000F60180839183A283B3839E012F5F3F4F82
:101A4000B501A401C6010E94B518811104C080E04F
:101A50003EC081E03CC000E010E09801B501A40167
:101A6000C6010E941418882391F389809A80AB8064
:101A7000BC80D60157968C91803129F088EF9FEF7A
:101A8000AFEFBFE004C088EF9FEFA0E0B0E08816A2
:101A90009906AA06BB0688F2D70157961D921D9299
:101AA0001D921C925A97F701138A148A158A168A76
:101AB00084818068848361E0C7010E94D80B8823F9
:101AC00031F240E050E0BA01C7010E9435070F90A3
:101AD0000F900F900F90DF91CF911F910F91FF907A
:101AE000EF90DF90CF90BF90AF909F908F90089530
:101AF0002F923F924F925F926F927F928F929F921E
:101B0000AF92BF92CF92DF92EF92FF920F931F930B
:101B1000CF93DF93CDB7DEB72B970FB6F894DEBF28
:101B20000FBECDBF7C01FE013196CE010C966F0138
:101B300030E23193E817F907E1F7DA0130E087E0A6
:101B40009D91992331F19E3231F48A3009F46DC1AF
:101B500038E08AE0F5CFECE3F3E04491442321F050
:101B600031969413FACF61C1831708F45EC14FED2B
:101B7000490F4E3508F059C141E0430FF601E30F1C
:101B8000F11D3FE9390F3A3108F490529083342F18
:101B9000D7CF8981803209F448C1322E8B01DB0115
:101BA0005B968D919C915C97F701948F838F16962D
:101BB0001D921D921D921C921997FB01128613868D
:101BC00014861586B12CF80182859385A485B58588
:101BD000438954896589768984179507A607B707CD
:101BE00008F05BC025E0B695A795979587952A954F
:101BF000D1F7F82FFF70AF2ED80115968C91823057
:101C000008F413C1C8010E94BB0A97FD0EC1F80178
:101C100082859385A485B5854F96A11DB11D8287C8
:101C20009387A487B587F0E2AF9EB00111246F5966
:101C30007C4F6115710509F4F8C0DB018C91882394
:101C400019F0853EC1F4F3C0B1100EC0F701A28AAD
:101C50008091000290910102A0910202B0910302D2
:101C600086879787A08BB18BDB018C91882399F0B5
:101C7000BB24B394A8CF4BE050E0C6010E94F836D5
:101C8000892B09F0A0CF832D8073803309F4CDC058
:101C9000432D6A2DC6C0BB24B394832D827182313B
:101CA00009F0C3C0BB20C1F0F70166857785808944
:101CB000918941E00E94710A882309F4B6C0D701D6
:101CC00052968C91B0E28B9FC00111248F599C4F8A
:101CD000009709F079C0A9C0F8018581823009F424
:101CE000A4C0C8010E942E06882309F49EC0D80112
:101CF0005B96ED91FC915C9716968D909D90AD90C2
:101D0000BC901997B2E08B1A9108A108B10805841C
:101D100004C0880C991CAA1CBB1C0A94D2F78685A7
:101D20009785A089B189880E991EAA1EBB1E2480A2
:101D3000E1E08E1A9108A108B108222011F12401D6
:101D40003501420C511C611C711C81E00E94480A43
:101D5000882309F46AC0E1E6F3E0119225E0E13658
:101D6000F207D9F7409200025092010260920202FB
:101D70007092030280915C03816080935C032A94DB
:101D8000DCCFD8015B96ED91FC915C9780E092E00E
:101D9000A0E0B0E0058404C0880F991FAA1FBB1FF4
:101DA0000A94D2F7F8014389548965897689840FAA
:101DB000951FA61FB71F838B948BA58BB68BD7015E
:101DC00052961C9281E693E020E2FC0111922A9542
:101DD000E9F72BE0F601DC0101900D922A95E1F77D
:101DE00021E238E2DC0151963C932E93509740E07B
:101DF00058E01F965C934E931E9753963C932E93F8
:101E0000529759963C932E93589757965C934E93BE
:101E1000569781E00E94480A882339F0432DF70144
:101E20006289C7010E947A0C05C080E003C0B1102E
:101E30001FCF0CCF2B960FB6F894DEBF0FBECDBFD1
:101E4000DF91CF911F910F91FF90EF90DF90CF9096
:101E5000BF90AF909F908F907F906F905F904F90CA
:101E60003F902F900895CF93DF93EC0161E00E94A3
:101E7000D80B882311F01D8281E0DF91CF91089566
:101E8000FC01818D928D009719F061E00C94D80BC4
:101E900008952F923F924F925F926F927F928F920E
:101EA0009F92AF92BF92CF92DF92EF92FF920F93E9
:101EB0001F93CF93DF9300D01F921F92CDB7DEB751
:101EC0007C015B01342E5D83DC0115968C911597A6
:101ED0008130C9F414962C9021FE15C022FE1DC03D
:101EE000F701438954896589768982859385A4851C
:101EF000B58584179507A607B70779F0C7010E9433
:101F0000350781110AC081E090E0D70113969C93B8
:101F10008E93129780E090E03FC1C32CDD80229425
:101F20007FE02722822D80958170282E81C05B96CC
:101F30008D919C915C97FC0174807A948A019B013D
:101F400069E036952795179507956A95D1F7702220
:101F50008A011170772009F477C080E092E0801B3D
:101F6000910B46018C159D0508F44C01D7015B9639
:101F70002D913C915C9716968D919D910D90BC9101
:101F8000A02D0297A109B109F901058404C0880FA9
:101F9000991FAA1FBB1F0A94D2F7468557856089EF
:101FA0007189840F951FA61FB71F9C01AD01270DD6
:101FB000311D411D511D29013A01811432E0930662
:101FC00009F089C08091000290910102A091020263
:101FD000B0910302481659066A067B0659F48FEF42
:101FE0009FEFDC018093000290930102A093020214
:101FF000B0930302022D9501B301A2018091610506
:10200000909162050E94B409882309F47CCF9EEF69
:10201000B91AC818D908F70182859385A485B585B2
:10202000880D991DA11DB11D82879387A487B5874F
:10203000D7011A964D915D916D917C911D97C114B8
:10204000D10409F074CF88C00115110509F085CFBE
:1020500016964D915D916D917C91199741155105A1
:102060006105710559F457968D919D910D90BC9124
:10207000A02D0097A105B10541F521C09E012F5F5C
:102080003F4F0E94B518882309F445CF89819A8172
:10209000AB81BC81F701238D348DF9012789203173
:1020A00029F048EF5FEF6FEF7FE004C048EF5FEF8C
:1020B00060E070E084179507A607B70730F0C70106
:1020C0000E942E06811149CF1ECFF7018683978388
:1020D000A087B18742CF0115110531F5D7011A96B6
:1020E0004D915D916D917C911D9753968D919D9130
:1020F0000D90BC91A02D481759076A077B07A0F0E7
:1021000081E00E94480A882309F4FDCE4092000233
:1021100050920102609202027092030280915C036D
:10212000816080935C0308C041E0C301B2010E945A
:10213000710A882309F4E7CED501F801EF59FC4F65
:102140009F01280D391D2E173F0719F08D9181939E
:10215000FACFA80CB91C5DCFF70183899489A589B2
:10216000B68984179507A607B70738F4438B548BB5
:10217000658B768B848180688483F701848183FDFD
:1021800003C0832D9D8108C061E0C7010E94D80B68
:10219000882309F4B8CEF5CF0F900F900F900F90D1
:1021A0000F90DF91CF911F910F91FF90EF90DF90F3
:1021B000CF90BF90AF909F908F907F906F905F90E7
:1021C0004F903F902F900895CF93DF931F92CDB7FC
:1021D000DEB7698341E050E0BE016F5F7F4F0E9430
:1021E000490F0F90DF91CF910895CF93DF93EC01CA
:1021F000898D9A8D009739F481E090E09B838A83E2
:1022000080E090E00BC0FC01138212820E94490F13
:10221000E98DFA8D22813381232B71F7DF91CF91E4
:102220000895CF92DF92EF92FF920F931F93CF9377
:10223000DF936C017A018B01C0E0D0E0CE15DF05A1
:1022400081F0D8016D918D01D601ED91FC91019045
:10225000F081E02DC6011995892B11F02196EECF62
:102260007E01C701DF91CF911F910F91FF90EF90F9
:10227000DF90CF900895FC01538D448D252F30E0E1
:10228000842F90E0821B930B541710F0CF96089583
:1022900001970895FC01918D828D981761F0828DD0
:1022A000DF01A80FB11D5D968C91928D9F5F9F738A
:1022B000928F90E008958FEF9FEF0895FC01918D2C
:1022C000828D981731F0828DE80FF11D858D90E099
:1022D00008958FEF9FEF0895FC01918D228D892F36
:1022E00090E0805C9F4F821B91098F73992708951E
:1022F00089E196E00E946C1121E0892B09F420E02D
:10230000822F0895FC01848DDF01A80FB11DA35A0F
:10231000BF4F2C91848D90E001968F739927848F05
:10232000A689B7892C93A089B1898C918370806428
:102330008C93938D848D981306C00288F389E02DC9
:1023400080818F7D80830895EF92FF920F931F937A
:10235000CF93DF93EC0181E0888F9B8D8C8D981358
:1023600005C0E889F989808185FD26C0F62E0B8D90
:1023700010E00F5F1F4F0F731127E02E8C8DE812B6
:102380000CC00FB607FCFACFE889F989808185FF78
:10239000F5CFCE010E948211F1CF8B8DFE01E80FA7
:1023A000F11DE35AFF4FF0829FB7F8940B8FEA8933
:1023B000FB89808180620AC09FB7F894EE89FF890B
:1023C0006083E889F98980818370806480839FBFFE
:1023D00081E090E0DF91CF911F910F91FF90EF90FE
:1023E0000895CF93DF93EC01888D8823C9F0EA89A3
:1023F000FB89808185FD05C0A889B9898C9186FDFE
:102400000FC00FB607FCF5CF808185FFF2CFA889FA
:10241000B9898C9185FFEDCFCE010E948211E7CF63
:10242000DF91CF91089580E090E0892B21F00E9408
:102430007811811125C080E090E0892B41F080E087
:1024400090E0892B21F00E94000081111CC080E0E7
:1024500090E0892B41F080E090E0892B21F00E94F0
:102460000000811113C080E090E0892BA1F080E092
:1024700090E0892B81F00E94000081110AC008952C
:102480000E940000D8CF0E940000E1CF0E9400000F
:10249000EACF0C94000008954091A405262F30E067
:1024A000240F311D21323105DCF420911306243034
:1024B000C9F4FC0180E090E0861758F43091A4053F
:1024C0002191DC01AC57BA4FA30FB11D2C9301969B
:1024D000F3CF8091A405680F6093A40580E0089570
:1024E00081E0089582E00895089508950895E091A7
:1024F000C8058091C705E81730F4F0E0ED50FA4FB9
:10250000808190E008958FEF9FEF08959091C80526
:102510008091C705981750F4E92FF0E0ED50FA4F7D
:10252000208130E09F5F9093C80502C02FEF3FEFFE
:10253000C90108958091C70590E02091C805821BCC
:1025400091090895CF92DF92EF92FF920F931F931C
:10255000CF93DF937C01CB018A012091CC0522230C
:1025600089F0EB016B01C40ED51ECC15DD0569F0B9
:102570006991D701ED91FC910190F081E02DC701A7
:102580001995F3CF642F0E944C12C801DF91CF91AF
:102590001F910F91FF90EF90DF90CF900895CF9310
:1025A000DF931F92CDB7DEB769832091CC0522233C
:1025B000D1F02091C905203240F021E030E0FC014B
:1025C0003383228380E090E015C08091CA05E82F14
:1025D000F0E0ED59FA4F998190838F5F8093CA059F
:1025E0008093C90505C061E0CE0101960E944C129E
:1025F00081E090E00F90DF91CF9108950F931F93AA
:10260000CF93DF93EC0188819981009729F02A818B
:102610003B812617370788F48B016F5F7F4F0E943D
:102620000E36009761F0998388831B830A832C817F
:102630003D81232B11F4FC01108281E001C080E078
:10264000DF91CF911F910F910895EF92FF920F9319
:102650001F93CF93DF936115710511F480E01CC0C7
:1026600041155105C1F07B01EC018C819D818A01EE
:10267000080F191FB801CE010E94FE12882371F3C2
:10268000288139818C819D81B701820F931F0E941F
:1026900019371D830C8381E0DF91CF911F910F913A
:1026A000FF90EF900895CF93DF93EC01888199819B
:1026B000009711F00E948535198218821D821C82B4
:1026C0001B821A82DF91CF910895CF93DF93EC01A3
:1026D0006115710561F0FB0101900020E9F7319768
:1026E000AF01461B570B0E942513811103C0CE0179
:1026F0000E945313CE01DF91CF910895EF92FF9284
:102700000F931F93CF93DF93EC017B018A01BA01F2
:102710000E94FE12811104C0CE010E94531307C013
:102720001D830C83B701888199810E941937CE01DE
:10273000DF91CF911F910F91FF90EF900895FC01D1
:1027400080819181009711F00C9485350895FB01EB
:10275000DC0111961C921E9213961C921E921297E7
:1027600015961C921E9214978617970749F0608160
:1027700071816115710521F0448155810C947E139E
:102780000895FC0111821082138212821582148234
:102790006115710551F0FB0101900020E9F73197B7
:1027A000AF01461B570B0C947E13089561157105FC
:1027B00079F0FB0101900020E9F73197AF01461B4A
:1027C000570BDC01ED91FC910280F381E02D19940F
:1027D00080E090E008950F931F93CF93DF93EC0177
:1027E000FB014481558160817181E881F98102801A
:1027F000F381E02D19958C016CE672E0CE010E9408
:10280000D613800F911FDF91CF911F910F910895E3
:102810001F920F920FB60F9211240BB60F922F93A7
:102820003F934F935F936F937F938F939F93AF9358
:10283000BF93EF93FF9389E196E00E948211FF918D
:10284000EF91BF91AF919F918F917F916F915F9128
:102850004F913F912F910F900BBE0F900FBE0F9095
:102860001F9018951F920F920FB60F9211240BB65E
:102870000F922F938F939F93EF93FF93E0912906ED
:10288000F0912A068081E0912F06F091300682FDBA
:1028900012C09081809132068F5F8F732091330632
:1028A000821751F0E0913206F0E0E75EF94F958F24
:1028B0008093320601C08081FF91EF919F918F91AB
:1028C0002F910F900BBE0F900FBE0F901F90189579
:1028D0001092130681E08093F2051092ED0561E0FD
:1028E00084E10E94552561E085E10E945525E9EBD0
:1028F000F0E080818E7F808380818D7F808388E47B
:102900008093B80085E48093BC000895CF93DF9353
:1029100091E0909383058823B9F0C091B800D091DD
:10292000BA008091BC008A7B8093BC0060E084E1A7
:102930000E94552560E085E10E9455250E9468149B
:10294000D093BA00C093B800DF91CF91089585ED80
:102950008093BC008091150690911606A0911706F1
:10296000B09118060796A11DB11D23E0B695A79555
:10297000979587952A95D1F72091BC0024FF1CC01C
:102980004091150650911606609117067091180631
:10299000452B462B472B81F30097A105B10541F04C
:1029A00025E32A95F1F700000197A109B109E4CFC9
:1029B000809114060C9486141092130608951F92A9
:1029C0000F920FB60F9211240BB60F922F933F93D5
:1029D0004F935F936F937F938F939F93AF93BF9327
:1029E000EF93FF938091B900887F803609F49CC0F3
:1029F00068F5883209F45BC090F4803109F454C062
:102A000038F4882309F4F6C0883009F44DC0F6C0C4
:102A1000883109F44CC0803209F45DC0EFC08034C5
:102A200009F468C048F4803309F455C0883309F0CC
:102A3000E5C08093F105D8C0803509F44FC08835D2
:102A400009F45DC0883409F0D9C0D6C0883909F4CA
:102A5000C7C0A8F4883709F467C038F4883609F489
:102A600063C0803709F460C0C9C0883809F4B8C0B1
:102A7000803909F45FC0803809F0C0C05BC0803B7A
:102A800009F486C038F4803A09F466C0883A09F43B
:102A90007FC0B4C0803C09F4A7C0883C09F4A4C03E
:102AA000883B09F48AC0AAC08091EE0510C09091BD
:102AB000F0058091EF05981770F5E091F00581E041
:102AC0008E0F8093F005F0E0E353FA4F80818093FE
:102AD000BB0085EC86C08093F1058EC0E091F005C7
:102AE00081E08E0F8093F0058091BB00F0E0E3530E
:102AF000FA4F80839091F0058091EF056EC0E091D0
:102B0000F00581E08E0F8093F0058091BB00F0E02E
:102B1000E353FA4F80838091F20581116DC081E00B
:102B20008093ED0584EA61C083E0809313061092E0
:102B3000C605CFCF8091C605803208F051C0E09124
:102B4000C60581E08E0F8093C6058091BB00F0E042
:102B5000EA55FA4F8083BDCF85EC8093BC0010927C
:102B600013068091C605803230F4E091C605F0E08E
:102B7000EA55FA4F10826091C60570E0E091720745
:102B8000F091730786EA95E019951092C60536C054
:102B900084E0809313061092A5051092A405E0919D
:102BA0007007F091710719958091A405811105C0F6
:102BB00081E08093A40510928405E091A50581E051
:102BC0008E0F8093A505F0E0EC57FA4F808180933B
:102BD000BB009091A5058091A405981708F479CFC2
:102BE00085E88093BC000AC085EC8093BC001092FD
:102BF000130604C01092F1050E94A714FF91EF91F3
:102C0000BF91AF919F918F917F916F915F914F9104
:102C10003F912F910F900BBE0F900FBE0F901F9002
:102C200018958F929F92AF92BF92CF92DF92EF92C0
:102C3000FF920F931F93CF93DF931091C905113229
:102C400008F0C2C0D091CB050E94C0256B017C0169
:102C5000C0911306CC2311F18091150690911606B0
:102C6000A0911706B0911806892B8A2B8B2B81F324
:102C70000E94C0258090150690901606A090170619
:102C8000B0901806DC01CB018C199D09AE09BF0973
:102C900088169906AA06BB06D8F682C082E0809301
:102CA000130681E08093F2058FEF8093F105109277
:102CB000F0051093EF05A3E6B5E0EDECF5E080E05C
:102CC000181721F09D9191938F5FFACF1092EE0526
:102CD0009091EE058D2F880F892B8093EE058091C2
:102CE000ED05813089F51092ED050E94C0256B013C
:102CF0007C018091EE058093BB0080911506909138
:102D00001606A0911706B0911806892B8A2B8B2BDB
:102D1000A9F00E94C0250091150610911606209179
:102D2000170630911806DC01CB018C199D09AE09FC
:102D3000BF09081719072A073B0790F18091BC00CB
:102D400083FDD7CF85EC01C085EE8093BC000E9447
:102D5000C0256B017C0180911306823039F580918A
:102D6000150690911606A0911706B0911806892BAA
:102D70008A2B8B2B81F30E94C025009115061091A0
:102D800016062091170630911806DC01CB018C192C
:102D90009D09AE09BF09081719072A073B07D8F68E
:102DA000809114060E948614C5E013C08091F1053D
:102DB0008F3F79F08091F105803241F08091F105EB
:102DC000803331F0C4E005C0C1E003C0C2E001C0FF
:102DD000C3E01092CA051092C9051092CC058C2F41
:102DE000DF91CF911F910F91FF90EF90DF90CF90E7
:102DF000BF90AF909F908F9008958F929F92AF92C7
:102E0000BF92CF92DF92EF92FF920F931F93CF93D7
:102E1000DF93EC01142F70936205609361054423E6
:102E200069F1453010F080E0F2C040E060E070E011
:102E3000CB010E94710A8823B1F320E1129FA00107
:102E400011244F5A5C4FFA01E254FE4F80818F7774
:102E500051F73C9680819181A281B381843691059E
:102E6000A105B10500F33497C080D180E280F380E2
:102E7000C114D104E104F10421F4D5CFC12CD12C2B
:102E8000760140E0C701B6010E94710A882359F219
:102E900080916C0390916D038115924021F6909181
:102EA0007103992309F4BFCF20916F033091700310
:102EB000232B09F4B8CF80916E03882309F4B3CF94
:102EC0009A8B8C831D8690E041E050E02D85E22FA7
:102ED000BA01022E02C0660F771F0A94E2F7861726
:102EE000970731F031E0320F3D87283078F39BCFE0
:102EF00020917703309178032115310519F040E0D6
:102F000050E008C0209185033091860340918703EB
:102F1000509188032D833E834F83588780916F03A0
:102F20009091700346015701880E991EA11CB11C97
:102F30008B8A9C8AAD8ABE8A0091720310917303BA
:102F4000198F088FA0917103B0E00E941B30860E8C
:102F5000971EA81EB91E8A8E9B8EAC8EBD8E85E0F4
:102F6000000F111F8A95E1F701501E4F012F112705
:102F70000695800E911EA11CB11C8E869F86A88A84
:102F8000B98A20917403309175032115310521F020
:102F9000A90160E070E008C0409181035091820374
:102FA0006091830370918403D701C6018819990940
:102FB000AA09BB09840F951FA61FB71F04C0B695A9
:102FC000A79597958795EA95D2F789879A87AB87D2
:102FD000BC87853F2FE09207A105B10510F48CE076
:102FE00014C0853F9F4FA105B10510F480E10DC0CD
:102FF00080918D0390918E03A0918F03B0919003E7
:103000008A8F9B8FAC8FBD8F80E28F8B81E0DF91A9
:10301000CF911F910F91FF90EF90DF90CF90BF90D5
:10302000AF909F908F9008954F925F926F927F9292
:103030008F929F92AF92BF92CF92DF92EF92FF92C8
:103040000F931F93CF93DF93EC014230510561053D
:10305000710510F480E078C089859A85AB85BC85C0
:103060000196A11DB11D84179507A607B70790F318
:10307000CB88DC88ED88FE888F89803129F4BB27D6
:10308000A72F962F852F09C0DB01CA01E7E0B6956F
:10309000A79597958795EA95D1F7480159012A0197
:1030A0003B01C80ED91EEA1EFB1E809100029091C2
:1030B0000102A0910202B0910302C816D906EA06E5
:1030C000FB0681F48F898031A9F4B301A201552751
:1030D00066277727440F551FFA01EF59FC4F91825D
:1030E000808219C040E0C701B6010E94710A8111B7
:1030F000E9CFB0CFB301A2014F77552766277727D5
:10310000440F551F440F551FFA01EF59FC4F8082A1
:103110009182A282B38280915C03816080935C0380
:103120008A89823080F08D819E81AF81B885C80EFA
:10313000D91EEA1EFB1EC0925D03D0925E03E09290
:103140005F03F092600381E0DF91CF911F910F91B7
:10315000FF90EF90DF90CF90BF90AF909F908F90B7
:103160007F906F905F904F9008958F929F92AF9253
:10317000BF92CF92DF92EF92FF920F931F93CF9364
:10318000DF93FC0181859285A385B4850196A11DFD
:10319000B11D84179507A607B70710F480E05BC040
:1031A00083889488A588B6888789803129F4BB27CD
:1031B000A72F962F852F09C0DB01CA01C7E0B6955E
:1031C000A79597958795CA95D1F7E9016A017B0183
:1031D0008F01BC01CD01680D791D8A1D9B1D80905A
:1031E000000290900102A0900202B09003026815C4
:1031F00079058A059B0591F4F80187898031A1F44E
:10320000DD24EE24FF24C601880F991FFC01EF592D
:10321000FC4F80819181A0E0B0E018C040E00E94A6
:10322000710A8111E9CFBACFE894C7F8DD24EE2402
:10323000FF24C601880F991F880F991FFC01EF59C1
:10324000FC4F80819181A281B381BF708883998373
:10325000AA83BB8381E0DF91CF911F910F91FF90F3
:10326000EF90DF90CF90BF90AF909F908F90089598
:10327000EF92FF920F931F93CF93DF93EC017B01AB
:103280008A011B821A8288EE93E0A0E0B0E08C8372
:103290009D83AE83BF838EE092E0998388838DE126
:1032A00090E00E94ED349A8F898F009779F02DE19C
:1032B000F701DC0101900D922A95E1F74CE050E016
:1032C000B801CE010C960E942037188EDF91CF9165
:1032D0001F910F91FF90EF900895CF93C62F2091EB
:1032E0006F0730E03595279591E09093CC052093BA
:1032F000CB051092CA051092C905682F86EB96E09F
:103300000E94CF126C2F86EB96E00E94CF1286EBC4
:1033100096E00E941116811108C061E070E080E023
:1033200090E00E94E52581E001C080E0CF91089502
:10333000EF92FF920F931F93CF93DF937C0100E0F6
:1033400010E0C0E0D0E0CF3FD10519F40F3F1105E8
:1033500079F0F701C591D491F70132960591149156
:10336000B801CE010E946D1984E0E80EF11CEBCF8C
:1033700081E090E0DF91CF911F910F91FF90EF904E
:103380000895CF93DF93EB0120916F0730E03595DF
:10339000279591E09093CC052093CB051092CA0518
:1033A0001092C905682F86EB96E00E94CF1286EB3B
:1033B00096E00E94111680916F0761E086950E9449
:1033C000A61E1092C8058093C705882329F086EBB6
:1033D00096E00E948612888361E070E080E090E0D1
:1033E0000E94E52581E0DF91CF9108951F93CF934F
:1033F000DF93162FCAE6D7E0E881F98120819A8110
:103400009095922390830E947908812F0E947908D9
:10341000E881F98190818A81892B808381E0DF9125
:10342000CF911F9108958F929F92AF92BF920F9369
:103430001F93CF93DF93CDB7DEB7A1970FB6F89464
:10344000DEBF0FBECDBF19A2423008F44AE08E01A4
:103450000F5D1F4F842E912CA12CB12CA50194013E
:103460000E944530E62FB901CA0101501109EA3026
:1034700014F4E05D01C0E95CD801EC93232B242B0C
:10348000252B61F7B80189E196E00E94D613A19639
:103490000FB6F894DEBF0FBECDBFDF91CF911F9165
:1034A0000F91BF90AF909F908F900895CF92DF9231
:1034B000EF92FF92CF93DF936C01990FEE08FF0814
:1034C000F7FE13C06DE289E196E00E94A411EC01C1
:1034D00066277727CB016C197D098E099F094AE081
:1034E0000E94131AC80FD91F06C04AE0C701B601CF
:1034F0000E94131AEC016CE672E089E196E00E94EA
:10350000D6138C0F9D1FDF91CF91FF90EF90DF902E
:10351000CF9008954F925F926F927F92AF92BF9239
:10352000CF92DF92EF92FF920F931F93CF93DF938F
:1035300000D01F92CDB7DEB78C0149835A836B83CD
:103540007C835901C12CD12C7601412C82E0582E6C
:10355000612C712C49815A816B817C819E012F5F86
:103560003F4FC8010E94B518882351F1D301C20111
:10357000F801058404C0880F991FAA1FBB1F0A9475
:10358000D2F7C80ED91EEA1EFB1E49815A816B81F3
:103590007C818789803129F088EF9FEFAFEFBFE012
:1035A00004C088EF9FEFA0E0B0E0481759076A0712
:1035B0007B0780F2F501C082D182E282F38281E052
:1035C0000F900F900F900F90DF91CF911F910F915F
:1035D000FF90EF90DF90CF90BF90AF907F906F9073
:1035E0005F904F900895CF93DF93FC0125812223B4
:1035F00011F080E049C0EC018091E7068031C1F410
:1036000082E08583178A108E118E128E8091E806D3
:103610009091E906A0E0B0E025E0880F991FAA1F6D
:10362000BB1F2A95D1F7838B948BA58BB68B19C0C2
:103630008032F9F683E085834091EA065091EB06EB
:103640006091EC067091ED06478B508F618F728F01
:103650009F012D5E3F4F80ED96E00E948A1A8823DD
:1036600041F280ED96E09C8F8B8F81E08C831E82EF
:103670001F82188619861A861B861C861D861E8642
:103680001F86188A198A1A8ADF91CF9108952F927E
:103690003F924F925F926F927F928F929F92AF92E2
:1036A000BF92CF92DF92EF92FF920F931F93CF932F
:1036B000DF93CDB7DEB7C756D1090FB6F894DEBF9A
:1036C0000FBECDBF6C015B01A6964FAFA69719A2A6
:1036D00018A286E592E09F8F8E8F1BA21C821B8210
:1036E0009A8389831E824E018EE1880E911CC4014B
:1036F0000E94F31A75018E010F5F1F4F24011801FC
:103700006FE270E0C7010E940E37009709F442C0D3
:10371000F70120812F3221F4FFEFEF1AFF0AF0CFDB
:103720008E198D3008F08CE0682E712CA301B70142
:10373000CE01885A9F4F0E942037E8E5F0E0EC0F59
:10374000FD1FE60DF71D1082C8010E94330FF8011E
:103750008581882351F01EAE1DAE86E592E09CAFB8
:103760008BAF21961FAE219721C021E0AE01485AB0
:103770005F4FB201C8010E94780D882361F3E60C07
:10378000F71CC2010E94330F942D852D2801092FAB
:10379000182FB6CFC7018A199B09A8969FAF8EAF85
:1037A000A897B201CE01CB960E94CC07A896EEADA9
:1037B000FFADA897AE0EBF1EF5018081811109C033
:1037C000BE01655C7F4FC1010E94CC074FE652E00D
:1037D00041C019A218A286E592E09F8F8E8F1BA28E
:1037E00021968FAD2197811113C0F60113821282A9
:1037F00088EE93E0A0E0B0E084839583A683B7834E
:103800008EE092E091838083128E118E148626C002
:10381000A6962FADA697A501BE01655C7F4FC4019A
:103820000E94780D882309F3CE01CB960E94330FB6
:10383000A6968FADA6978670863039F449A95AA905
:103840006BA97CA9C4010E943507B401C1010E9483
:10385000CC07A501B101C6010E943819C601C9599A
:10386000DF4F0FB6F894DEBF0FBECDBFDF91CF9113
:103870001F910F91FF90EF90DF90CF90BF90AF908E
:103880009F908F907F906F905F904F903F902F9080
:1038900008958F929F92AF92BF92EF92FF920F93F3
:1038A0001F93CF93DF93EC011B8619861E821D8226
:1038B0006C830E941F264B015C0161E08C810E9499
:1038C000842561E08C810E9455250E941D0882E5B7
:1038D0008093C2061092C3068091C2069091C306DF
:1038E0000E94B8081AE08FEF0E9479081150D9F7AA
:1038F00074010E946D08CE010E94BB0820E030E0F8
:10390000A90160E0CE010E94D108182F8A8781307A
:1039100049F00E941F266E197F09613D774070F3C0
:1039200081E04AC02AEA31E040E050E068E0CE01A0
:103930000E94D10882FF02C01B870CC004E00E94D5
:1039400080088A870150D9F78A3A11F082E034C0A2
:1039500082E08B878B85823021F0812C912C540161
:1039600005C0812C912CA12C80E4B82E20E030E001
:10397000A90167E3CE010E94D108A501940169E283
:10398000CE010E94D1088A87882349F00E941F2611
:103990006E197F09613D774048F388E00DC08B8543
:1039A0008230E9F420E030E0A9016AE3CE010E9410
:1039B000D108882339F086E08D83CE010E946E08FD
:1039C00010E015C00E948008807C803C11F483E0E8
:1039D0008B870E9480080E9480080E948008CE0188
:1039E0000E946E0880E58093C2061092C306812F64
:1039F000DF91CF911F910F91FF90EF90BF90AF900B
:103A00009F908F900895CF93C82F8091F3068823BD
:103A100021F08EEE96E00E94330F6C2F84EC96E03E
:103A20000E94491C882379F064EC76E080ED96E0F2
:103A30000E945308882339F08EEE96E00E94F31A14
:103A400091E0811101C090E0892FCF910895EF920C
:103A5000FF920F931F93CF93DF93CDB7DEB7E69717
:103A60000FB6F894DEBF0FBECDBF7C018B011F8E59
:103A70001E8E88EE93E0A0E0B0E088A399A3AAA3ED
:103A8000BBA38EE092E09D8F8C8F1EAA1DAA18A664
:103A900089E00E94031DF7016081718147E1CE0139
:103AA00001960E94471BBE016F5F7F4FCE014C966F
:103AB0000E94F823EDA9FEA9309799F0858188230B
:103AC00081F0B801CE014C960E94EB138DA99EA9FE
:103AD000009749F00E94330F8DA99EA90E94853559
:103AE00002C080E001C081E0E6960FB6F894DEBF28
:103AF0000FBECDBFDF91CF911F910F91FF90EF903F
:103B00000895CF93DF93EC01FB01448155816081DF
:103B100071810E942513811103C0CE010E945313AD
:103B2000CE01DF91CF910895EF92FF920F931F93F3
:103B3000CF93DF93CDB7DEB7A1970FB6F894DEBF72
:103B40000FBECDBF7C01CB01BA01F70111821082FB
:103B500013821282158214828E010F5F1F4F22E0A2
:103B600044E00E94532C009769F0FC010190002072
:103B7000E9F73197AF01481B590BBC01C7010E94FF
:103B80007E1303C0C7010E945313A1960FB6F89489
:103B9000DEBF0FBECDBFDF91CF911F910F91FF9080
:103BA000EF900895EF92FF920F931F93CF93DF93BF
:103BB000CDB7DEB7E6970FB6F894DEBF0FBECDBF28
:103BC0007C018B011F8E1E8E88EE93E0A0E0B0E09A
:103BD00088A399A3AAA3BBA38EE092E09D8F8C8FAC
:103BE0001EAA1DAA18A66EE672E0C7010E94C113A4
:103BF00089E00E94031DF8016081718141E08E011E
:103C00000F5F1F4FC8010E94471BB801CE014C96A1
:103C10000E94F823EDA9FEA9309741F18581882300
:103C200029F1CE014C960E94E205892BA9F0CE0124
:103C30004C960E94A40B4AE0B8010E94732CF80134
:103C400001900020E9F73197AF01401B510BB801FB
:103C5000C7010E942513E5CF8DA99EA9009731F0D9
:103C60000E94330F8DA99EA90E948535C701E69653
:103C70000FB6F894DEBF0FBECDBFDF91CF911F917D
:103C80000F91FF90EF900895CF92DF92EF92FF9205
:103C90000F931F93CF93DF93909145079F3F51F46C
:103CA000DF91CF911F910F91FF90EF90DF90CF9018
:103CB0000C947908E82EF12CC7E0D0E001E010E088
:103CC000FF0C60E0809145070E945525B8010C2E3D
:103CD00001C0660F0A94EAF76E21809143070E94A3
:103CE000552561E0809145070E94552520914407A4
:103CF00030E0F901EA59FC4F8491F901E455FC4F99
:103D0000D490F901E45FFB4FC490CC2071F0811195
:103D10000E94FF24EC2DF0E0EE0FFF1FE45BFC4F50
:103D2000A591B491EC91DE2269F4219708F0C8CFF7
:103D30008F2DDF91CF911F910F91FF90EF90DF902A
:103D4000CF9008958F2D8160F82EEFCF8F929F92A4
:103D5000AF92BF92CF92DF92EF92FF920F931F9399
:103D6000CF93DF93F82ED62F613208F0BBC00E94AC
:103D7000C0254B015C01C0911306CC2331F1809129
:103D8000150690911606A0911706B0911806892B7A
:103D90008A2B8B2B81F30E94C02500911506109170
:103DA00016062091170630911806DC01CB01881900
:103DB0009909AA09BB09081719072A073B07D8F66A
:103DC000809114060E9486148DC081E080931306B2
:103DD0008093F2059FEF9093F1051092F0059D0FEF
:103DE0009093EF058093EE059091EE058F2D880F4F
:103DF000892B8093EE058091ED05813089F5109235
:103E0000ED050E94C0256B017C018091EE05809339
:103E1000BB008091150690911606A0911706B091EF
:103E20001806892B8A2B8B2BA9F00E94C025809025
:103E3000150690901606A0901706B0901806DC01A3
:103E4000CB018C199D09AE09BF0988169906AA06EF
:103E5000BB0690F18091BC0083FDD7CF85EC01C0FB
:103E600085EE8093BC000E94C0256B017C0180918F
:103E70001306813031F58091150690911606A091B8
:103E80001706B0911806892B8A2B8B2B81F30E9481
:103E9000C0258090150690901606A0901706B09049
:103EA0001806DC01CB018C199D09AE09BF098816E3
:103EB0009906AA06BB06D8F6809114060E948614BD
:103EC00012C08091F0058D1710F4D091F005EDEC43
:103ED000F5E0A3EFB5E0C0E0CD1729F081918D9317
:103EE000CF5FFACFC0E08C2FDF91CF911F910F9160
:103EF000FF90EF90DF90CF90BF90AF909F908F900A
:103F000008954F925F926F927F928F929F92AF929D
:103F1000BF92CF92DF92EF92FF92CF93C82F809102
:103F200042078F3F09F064C08091390791E0909378
:103F3000CC058093CB051092CA051092C9058091DB
:103F4000370790913807DC01ED91FC910190F081E9
:103F5000E02D6C2F199580913707909138070E94BA
:103F6000111663E0809139070E94A61E1092C805C1
:103F70008093C7058091370790913807DC01ED9158
:103F8000FC910284F385E02D19952C01990F6608A8
:103F90007708762C652C542C442480913707909117
:103FA0003807DC01ED91FC910284F385E02D199531
:103FB0006C01990FEE08FF08C428D528E628F728D9
:103FC00088249C2CAD2CBE2C80913707909138070B
:103FD000DC01ED91FC910284F385E02D19956C01D3
:103FE000990FEE08FF08C828D928EA28FB2833C013
:103FF000809145078F3F21F482E591E00E94B80847
:1040000060E0809142070E9455258C2F80680E94B5
:10401000441E80E00E94441EC82ED12CE12CF12CBD
:10402000FE2CED2CDC2CCC2480E00E94441EC82AFF
:10403000FE2CED2CDC2CCC2480E00E94441EC82AEF
:1040400061E0809142070E945525809145078F3F8E
:1040500011F40E946D08C701B601CF91FF90EF9057
:10406000DF90CF90BF90AF909F908F907F906F9098
:104070005F904F900895CF93DF93D82FC62F8091F4
:1040800042078F3F59F58091390791E09093CC0515
:104090008093CB051092CA051092C905809137070D
:1040A00090913807DC01ED91FC910190F081E02DB9
:1040B0006D2F19958091370790913807DC01ED91AC
:1040C000FC910190F081E02D6C2F199580913707BC
:1040D00090913807DF91CF910C941116809145078C
:1040E0008F3F21F482E591E00E94B80860E0809162
:1040F00042070E9455258D2F8F770E94441E8C2FDA
:104100000E94441E61E0809142070E9455258091E3
:1041100045078F3F21F4DF91CF910C946D08DF911B
:10412000CF910895CF93C82F809142078F3F99F583
:104130008091390791E09093CC058093CB05109244
:10414000CA051092C9058091370790913807DC01A4
:10415000ED91FC910190F081E02D6C2F19958091EB
:104160003707909138070E94111661E08091390756
:104170000E94A61E1092C8058093C705809137073C
:1041800090913807DC01ED91FC910284F385E02DDC
:104190001995C82F20C0809145078F3F21F482E5F3
:1041A00091E00E94B80860E0809142070E94552586
:1041B0008C2F80680E94441E80E00E94441EC82FFD
:1041C00061E0809142070E945525809145078F3F0D
:1041D00011F40E946D088C2FCF910895CF93DF9337
:1041E000C82F809142078F3F09F044C08091390762
:1041F00091E09093CC058093CB051092CA05109264
:10420000C9058091370790913807DC01ED91FC9149
:104210000190F081E02D6C2F1995809137079091D6
:1042200038070E94111662E0809139070E94A61E8D
:104230001092C8058093C705809137079091380781
:10424000DC01ED91FC910284F385E02D1995C82FD6
:104250008091370790913807DC01ED91FC91028441
:10426000F385E02D199520E030E03C2FE901C82BC3
:10427000D92B29C0809145078F3F21F482E591E039
:104280000E94B80860E0809142070E9455258C2F5B
:1042900080680E94441E80E00E94441EC82F80E077
:1042A0000E94441E2C2F30E0322F2227E901C82B18
:1042B00061E0809142070E945525809145078F3F1C
:1042C00011F40E946D08CE01DF91CF9108950E94F4
:1042D000EE2098278927982708958F929F92AF9272
:1042E000BF92CF92DF92EF92FF920F931F938AEFCC
:1042F0000E94811F6115710520E88207910509F46C
:1043000079C0009146071091470720E030E0C72EA2
:10431000D82EE92EFF24E7FCFA94C01AD10AE20A4B
:10432000F30ADC01CB0157E0B595A79597958795E2
:104330005A95D1F7000F111F221F331F4C015D0149
:10434000801A910AA20AB30AA5019401A091480714
:10435000B09149070E946F304B015C017BE0B5943E
:10436000A794979487947A95D1F7A7019601C701EE
:10437000B6010E9435309B01AC01ECE055954795A4
:1043800037952795EA95D1F7A0914A07B0914B0749
:104390000E946F30DC01CB01FEE0B595A7959795A3
:1043A0008795FA95D1F7A5019401280F391F4A1F67
:1043B0005B1F20933E0730933F0740934007509385
:1043C0004107A5E0B0E00E941B30DC01CB01805822
:1043D0009F4FAF4FBF4F692F7A2F8B2F992787FDA4
:1043E0009A950E94FE2E20E030E048EC52E40E94B4
:1043F000693204C060E070E080EC9FE71F910F918C
:10440000FF90EF90DF90CF90BF90AF909F908F90F4
:1044100008952F923F924F925F926F927F928F9268
:104420009F92AF92BF92CF92DF92EF92FF920F9343
:104430001F93CF93DF93CDB7DEB768970FB6F8948D
:10444000DEBF0FBECDBF0E946D2187EF0E94811F8E
:104450006B877C878D879E876115710580489105E4
:1044600009F4A5C180913E0790913F07A0914007B4
:10447000B09141076C017D01FF0CCC08DC2C76016A
:104480009C01AD016C2D7C2D8C2D9C2D345F414009
:104490005109610971098109910929833A834B8383
:1044A0005C836D837E83888F9F8B59016A017B01BA
:1044B0008C010E9477302F83388749875A876B8B0E
:1044C0007C8B8D8B9E8B30914F0720914E07932FC5
:1044D000990F990B492F592F692F792F892F0E94F6
:1044E00077300CE00E94A7311901942E852E762E8C
:1044F000672E582E492E3091510720915007932F47
:10450000990F990BAF80B884C984DA84EB88FC8852
:104510000D891E89492F592F692F792F892F0E94C4
:10452000773008E00E94C0315101C92CD82CE72C0B
:10453000F62C052D142D0E94DE3170588F4F9F4FA1
:1045400020904C0730904D075101C12CD12CE12C0B
:10455000F12C00E010E00E94773001E20E94C031AF
:10456000322E232E4F87588B698B472E582E9A8BCD
:10457000A0E00E94F03109F41FC13091570720914B
:104580005607932F990F990BAF80B884C984DA84AA
:10459000EB88FC880D891E89492F592F692F792FA7
:1045A000892F0E9477302F8338873A014B01898702
:1045B0009A873091550720915407932F990F990BA3
:1045C000A980BA80CB80DC80ED80FE80088D1F89B9
:1045D000492F592F692F792F892F0E94773001E1B8
:1045E0000E94A731AF80B8846301740109851A85E0
:1045F0000E94DE3159016A017B018983192F4B85A5
:104600005C856D857E8584E07595679557954795A2
:104610008A95D1F780E090E0A0E1B0E0841B950B93
:10462000A60BB70B3C014D01990C6608762C430193
:104630009C01AD01662D762D862D962D0FE10E94F1
:10464000A73149014B835A83B62FA72FF82FE92FA3
:104650003091530720915207932F990F990B492FAF
:10466000592F692F792F892F03E20E94A7310981E1
:104670000E94DE3159016A017B018C0194014B815A
:104680005A816B2F7A2F8F2F9E2F0E94E731E5E3FF
:10469000AE2EFCE0BF2EC12CD12CE12CF12C00E081
:1046A00010E00E947730A32CB22CCF84D888E98800
:1046B000F42C052D1A890E94D23028873F83498324
:1046C0005A836B837C838D839E830DE00E94C0316F
:1046D000922E832E742E652E562E472E382E292E7E
:1046E00030915D0720915C07932F990F990BA92CAE
:1046F000B82CC72CD62CE52CF42C032D122D492FC9
:10470000592F692F792F892F0E9477300E94773097
:1047100009E10E94C031A884BF80C980DA80EB80A3
:10472000FC800D811E810E94DE3119012A013B01AE
:104730004C0130915B0720915A07932F990F990BE9
:10474000492F592F692F792F892F0E94773003E144
:104750000E94C03159016A017B018C019101A201C3
:10476000B301C4010E94DE3108E00E94C03159014A
:104770006A017B01E82F192F3091590720915807C2
:10478000932F990F990B492F592F692F792F892F23
:1047900004E00E94A7310E2F0E94DE310E940A33EE
:1047A00020E030E040E85BE30E945D2F08C060E05D
:1047B00070E080EC9FE703C060E070E0CB0168969A
:1047C0000FB6F894DEBF0FBECDBFDF91CF911F9122
:1047D0000F91FF90EF90DF90CF90BF90AF909F90A0
:1047E0008F907F906F905F904F903F902F900895A3
:1047F000CF93DF93FB0122813381DC0113963C933D
:104800002E931297448155816681778114964D933A
:104810005D936D937C931797408551856285738571
:1048200018964D935D936D937C931B971C96EF01A7
:104830002C969C01275E3F4F49914D93A217B307D9
:10484000D9F7218D328DFC01328F218FDF91CF91ED
:1048500008950E94F3368F929F92AF92BF92CF92AB
:10486000DF92EF92FF920F931F93CF93DF936B0131
:104870007C01142F9B01AC010E94B333882319F0F3
:104880006EE473E027C046015701E894B7F82FEFB4
:104890003FEF4FE75FE7C501B4010E94B3338111D9
:1048A0000DC02FEF3FEF4FE75FE7C501B4010E9456
:1048B000F72E18161CF462E573E00CC02FEF3FEFE3
:1048C0004FE75FE4C701B6010E945E33181694F407
:1048D00066E573E089E196E0DF91CF911F910F913A
:1048E000FF90EF90DF90CF90BF90AF909F908F9010
:1048F0000C94D6132FEF3FEF4FE75FECC701B601E3
:104900000E94F72E87FDE4CF20E030E0A901C70127
:10491000B6010E94F72E87FF0BC06DE289E196E099
:104920000E94A411EC01F7FAF094F7F8F09402C099
:10493000C0E0D0E000E060E070E080E09FE31017AE
:1049400041F020E030E040E251E40E9469320F5F24
:10495000F6CFA70196010E94FD316B017C010E94F8
:10496000DB324B015C014AE00E94131AC80FD91FC9
:104970001123B9F1C501B4010E94FC2E9B01AC01C9
:10498000C701B6010E94FC316B017C016EE289E136
:1049900096E00E94A411C80FD91F20E030E040E249
:1049A00051E4C701B6010E945D2F4B015C010E94DA
:1049B000DB326B01E12CF12C4AE0C701B6010E9409
:1049C000131AC80FD91FC701B6010E94FC2E9B0104
:1049D000AC01C501B4010E94FC316B017C01115096
:1049E000E1F6CE01DF91CF911F910F91FF90EF90F3
:1049F000DF90CF90BF90AF909F908F90089590E000
:104A0000FC013197E231F10508F04EC08827EE58DD
:104A1000FF4F8F4F0C946730809180008F7703C0D9
:104A2000809180008F7D8093800008958091800028
:104A3000877FF9CF84B58F7702C084B58F7D84BD21
:104A400008958091B0008F7703C08091B0008F7D72
:104A50008093B0000895809190008F7707C0809177
:104A600090008F7D03C080919000877F809390009D
:104A700008958091A0008F7707C08091A0008F7D5E
:104A800003C08091A000877F8093A000089580914B
:104A900020018F7707C0809120018F7D03C0809116
:104AA0002001877F8093200108951F93CF93DF9388
:104AB000282F30E0F901EA59FC4F8491F901E455BF
:104AC000FC4FD491F901E45FFB4FC491CC23C1F0BA
:104AD000162F81110E94FF24EC2FF0E0EE0FFF1F34
:104AE000EE50FC4FA591B4919FB7F894111104C0FA
:104AF0008C91D095D82302C0EC91DE2BDC939FBF24
:104B0000DF91CF911F910895CF93DF9390E0FC0147
:104B1000E455FC4F2491FC01E45FFB4F8491882312
:104B200061F190E0880F991FFC01EE5BF44FC59195
:104B3000D491FC01EE50FC4FA591B491611109C0D4
:104B40009FB7F8948881209582238883EC912E2347
:104B50000BC0623061F49FB7F8948881322F309592
:104B600083238883EC912E2B2C939FBF06C08FB795
:104B7000F894E8812E2B28838FBFDF91CF91089581
:104B80003FB7F89480917B0790917C07A0917D07B7
:104B9000B0917E0726B5A89B05C02F3F19F001965E
:104BA000A11DB11D3FBFBA2FA92F982F8827820FB3
:104BB000911DA11DB11DBC01CD0142E0660F771F03
:104BC000881F991F4A95D1F708958F929F92AF92AF
:104BD000BF92CF92DF92EF92FF926B017C010E9415
:104BE000C0254B015C01C114D104E104F104F1F0D2
:104BF0000E94C025DC01CB0188199909AA09BB09CB
:104C0000883E9340A105B10570F321E0C21AD10896
:104C1000E108F10888EE880E83E0981EA11CB11C03
:104C2000C114D104E104F10419F7DDCFFF90EF9036
:104C3000DF90CF90BF90AF909F908F9008952FB747
:104C4000F894609177077091780780917907909137
:104C50007A072FBF08951F920F920FB60F9211245B
:104C60002F933F938F939F93AF93BF938091770739
:104C700090917807A0917907B0917A0730917607E3
:104C800023E0230F2D3720F40196A11DB11D05C08F
:104C900026E8230F0296A11DB11D2093760780936D
:104CA000770790937807A0937907B0937A0780915C
:104CB0007B0790917C07A0917D07B0917E070196BC
:104CC000A11DB11D80937B0790937C07A0937D0766
:104CD000B0937E07BF91AF919F918F913F912F919C
:104CE0000F900FBE0F901F901895CF93DF93E9E1BF
:104CF000F6E01382128288EE93E0A0E0B0E08483B5
:104D00009583A683B78320E232E03183208325ECAC
:104D100030E03587248724EC30E03787268720EC85
:104D200030E0318B208B21EC30E0338B228B22EC76
:104D300030E0358B248B26EC30E0378B268B118EC0
:104D4000128E138E148EE6EBF6E0138212828483A9
:104D50009583A683B78384E492E091838083E2EC19
:104D6000F6E080E580831182E4ECF6E0158216829D
:104D70001186138682E090E0A0E0B0E084879587FA
:104D8000A687B78713A215A614A626E532E033A797
:104D900022A717A6EBE2F7E015821682118613868A
:104DA000EDE0F7E080839183A283B383178AE7E382
:104DB000F7E088E083878FEF848785878687E6E141
:104DC000F4E0E491F0E0EE0FFF1FEE50FC4F859110
:104DD0009491CAE6D7E099838883E6EBF3E0E49107
:104DE000EA8361E08AE00E948425E881F98190816C
:104DF0008A81892B808385E08C8380E68D83DF9197
:104E0000CF910895CF93DF93CDB7DEB7E8970FB674
:104E1000F894DEBF0FBECDBF789484B5826084BDA8
:104E200084B5816084BD85B5826085BD85B58160AE
:104E300085BD80916E00816080936E00109281002C
:104E400080918100826080938100809181008160E7
:104E500080938100809180008160809380008091A8
:104E6000B10084608093B1008091B0008160809334
:104E7000B0008091910082608093910080919100B8
:104E80008160809391008091900081608093900078
:104E90008091A10082608093A1008091A100816037
:104EA0008093A1008091A00081608093A0008091F8
:104EB0002101826080932101809121018160809392
:104EC00021018091200181608093200180917A00EE
:104ED000846080937A0080917A00826080937A0067
:104EE00080917A00816080937A0080917A00806856
:104EF00080937A001092C100E0912906F0912A0671
:104F000082E08083E0912506F09126061082E091F0
:104F10002706F09128068FEC808310923106E091ED
:104F20002D06F0912E0686E08083E0912B06F0910D
:104F30002C06808180618083E0912B06F0912C0605
:104F4000808188608083E0912B06F0912C0680811F
:104F500080688083E0912B06F0912C0680818F7D04
:104F6000808369E08BE297E00E94491C811198C41C
:104F70006BE277E08DE097E00E945308811190C4C6
:104F800061E772E089E196E00E94D6136CE672E078
:104F900089E196E00E94D613809136078E010F5F5B
:104FA0001F4F823039F0833041F0813049F46FE98E
:104FB00072E008C063EA72E005C067EA72E002C00E
:104FC0006CEA72E0C8010E94C113B80189E196E061
:104FD0000E94EB13C8010E949F1360EB72E0C801AE
:104FE0000E94C1136EEB72E0CE0143960E94C11382
:104FF000B801CE0143960E94271D90E00E94561AE8
:10500000CE0143960E949F13C8010E949F136EEB2E
:1050100072E0CE0143960E94C113BE016D5E7F4FC8
:10502000C8010E94D21DB80189E196E00E94EB13ED
:10503000C8010E949F13CE0143960E949F131092B5
:10504000C8051092C7051092CA051092C9050E94A2
:10505000681484E792E1909371078093700785E765
:1050600092E1909373078093720761E08AE00E9457
:10507000842561E08AE00E9455250E941D0860E8B1
:1050800070E087E890E00E94F61964E670E080E046
:1050900090E00E94E52560E070E087E890E00E94E3
:1050A000F61964E670E080E090E00E94E52565E591
:1050B00070E080E890E00E94F619E0916A07F091B4
:1050C0006B07908180916C0780958923808380E0B5
:1050D0000E94790880E00E947908E0916A07F091C7
:1050E0006B07208190916C07922B9083853509F096
:1050F0005DC061E070E08FEF90E00E946D19BE012D
:105100006D5E7F4F8AE00E94C119B8018BE00E945A
:10511000C1198B89863209F04CC081E080936D07FC
:1051200080916E078530A9F561E070E08FEF90E027
:105130000E946D1960E870E082E190E00E946D19B4
:1051400064E670E080E090E00E94E52580916D07C4
:105150008130D9F48EE994E00E94981986E794E0B2
:105160000E94981982E594E00E94981961E070E02D
:105170008FEF90E00E946D1960E070E085E190E0B3
:105180000E946D1982EA9AE002C08AE997E00E94C3
:10519000981982EA9AE00E94981968EE73E080E01C
:1051A00090E00E94E52581E090E005C08FEF9FEF41
:1051B00002C08EEF9FEF0E94561A86E78093390750
:1051C00086EB96E0909338078093370780914207EB
:1051D0008F3FB9F41092C8051092C7051092CA0506
:1051E0001092C9050E94681484E792E190937107B8
:1051F0008093700785E792E190937307809372071D
:105200001CC061E00E94552561E0809142070E9428
:105210008425809145078F3F19F40E941D080DC019
:1052200061E00E94842561E0809143070E9484250B
:1052300060E0809144070E94842580ED0E949220C6
:10524000803609F0F5C066EB80EE0E943B206CE2F0
:1052500071E080E090E00E94E52583EF0E949220BB
:1052600080FF05C064E670E080E090E0F4CF88E85D
:105270000E94672190934707809346078AE80E941F
:10528000672190934907809348078CE80E94672123
:1052900090934B0780934A078EE80E946721909372
:1052A0004D0780934C0780E90E94672190934F0738
:1052B00080934E0782E90E94672190935107809363
:1052C000500784E90E946721909353078093520707
:1052D00086E90E946721909355078093540788E9D7
:1052E0000E94672190935707809356078AE90E948E
:1052F000672190935907809358078CE90E94672192
:1053000090935B0780935A078EE90E9467219093E0
:105310005D0780935C0781EA0E94922080935E077C
:1053200081EE0E9467219093600780935F0783EE70
:105330000E9492208093610784EE0E949220F82EB2
:1053400085EE0E94922040E1F49E900111248F701E
:10535000282B309363072093620786EE0E949220E9
:10536000F82E85EE0E94922050E1F59E90011124C6
:1053700090E044E0959587954A95E1F7822B932B31
:10538000909365078093640787EE0E949220809334
:1053900066078DEE80936807809169078F71806A38
:1053A0008093690780916707807C8093670765E039
:1053B00082EF0E943B2090916707692F677080E21F
:1053C000689F90011124892F869586958695877010
:1053D000A8E08A9FB0011124622B732B97FB9927B9
:1053E00090F9692B85EF0E943B2090916807692F07
:1053F0006770B0E26B9F90011124892F8695869586
:105400008695877048E0849FB0011124622B732B2E
:105410009295969596959370692B84EF0E943B2008
:1054200064E670E080E090E00E94E52581E001C044
:1054300080E090E00E94561A0E946D2169AB7AAB21
:105440008BAB9CAB0E9409224B015C010E946D2139
:105450008DEF0E94EE202C01612C712C411450E83C
:1054600055066104710409F4E2C0C0903E07D09073
:105470003F07E0904007F09041078CE2D81A81E0A6
:10548000E80AF1083EE0440C551C661C771C3A956E
:10549000D1F78091620790916307092E000CAA0B47
:1054A000BB0B44E1880F991FAA1FBB1F4A95D1F778
:1054B000481A590A6A0A7B0AA0916407B0916507E5
:1054C000A70196010E946F30461A570A680A790AA6
:1054D00090E4590E611C711CA30192016FE0559577
:1054E0004795379527956A95D1F72DAB3EAB4FABD6
:1054F00058AFA0916107B0E0A70196010E941B3050
:105500002B013C017BE075946794579447947A95FE
:10551000D1F730E8530E611C711CA09166070A2E6A
:10552000000CBB0BA70196010E946F30EAE0959535
:10553000879577956795EA95D1F7A30192010E9427
:105540003530DC01CB01FAE0B595A79597958795A5
:10555000FA95D1F79C01AD01405E5F4FA0915F07C6
:10556000B09160070E946F30DC01CB01905EAF4FBD
:10557000BF4FBC01CD01AEE09595879577956795B6
:10558000AA95D1F72DA93EA94FA958AD0E94353053
:105590006B017C01BFE09595879577956795BA95E6
:1055A000D1F79B01AC010E9435309B01AC0187E033
:1055B00055954795379527958A95D1F7A0915E0720
:1055C000B0E00E941B30DC01CB0124E0B595A7952B
:1055D000979587952A95D1F7A7019601281B390B36
:1055E0004A0B5B0BDA01C90157FF03C080E090E072
:1055F000DC0181309105A10539E1B30724F080E099
:1056000090E0A0E0B9E1BC01CD012CE09595879533
:10561000779567952A95D1F70E94FE2E20E030E01D
:1056200040E85AE30E945D2F6B017C0106C0C12C4B
:10563000D12C80ECE82E8FE7F82E0E94092220E082
:1056400030E048EC52E40E94693220E030E54DE75A
:1056500054E40E94693221E03EED42E45EE30E94A0
:1056600063339B01AC0160E070E080E89FE30E943F
:10567000FC3120E03AE24DE257E40E945D2F2B011D
:105680003C0167EC72E089E196E00E94D61342E0AB
:1056900069A97AA98BA99CA90E942B2464ED72E0C8
:1056A00089E196E00E94D6136AED72E089E196E006
:1056B0000E94D61342E0C501B4010E942B2464EE7F
:1056C00072E089E196E00E94D6136BEE72E089E108
:1056D00096E00E94D61342E0C701B6010E942B2437
:1056E00065EF72E089E196E00E94D6136AEF72E0FE
:1056F00089E196E00E94D61342E0C301B2010E9404
:105700002B2464E073E089E196E00E94D6136CE6F6
:1057100072E089E196E00E94D613B301A201C801AC
:105720000E94941DB701A601CE0143960E94941DCC
:10573000B501A401CE0149960E94941D49A95AA918
:105740006BA97CA9CE014F960E94941D66E073E080
:10575000CE0185960E94C113BE01615E7F4FCE01CE
:1057600085960E94811D64E173E00E94651368E1E3
:1057700073E00E946513BE01675E7F4F0E94811D2A
:1057800063E273E00E94651368E273E00E946513B0
:10579000BE016D5E7F4F0E94811D63E373E00E9436
:1057A000651366E373E00E946513B8010E94811DD2
:1057B00064E073E00E946513BC01CE018B960E94E9
:1057C000A713CE0185960E949F13CE014F960E948B
:1057D0009F13CE0149960E949F13CE0143960E94CB
:1057E0009F13C8010E949F13BE01655D7F4FCE01CC
:1057F00043960E94A71380917407909175071A8EA3
:10580000198E1C8E1B8E1E8E1D8E4AE0B8010E94C2
:10581000732CF80101900020E9F73197AF01401B8C
:10582000510BB801CE0149960E947E1361E473E0EA
:10583000CE014F960E94C113BE01675E7F4FCE011D
:105840004F960E94811D62EC72E00E946513BC01BC
:10585000C8010E94A713BE016D5E7F4FC8010E9460
:10586000271DC8010E949F13CE014F960E949F13CF
:10587000CE0149960E949F13CE0143960E949F132A
:1058800080917407909175070196909375078093A6
:105890007407CE018B960E949F130E941312CCCDE9
:1058A0006BE872E06FCBEF920F931F93CF93DF9370
:1058B000E80147FD02C034E001C034E1042E000CD1
:1058C000550B57FF03C0519541955109E32E022F07
:1058D000242FAE010E94982CCE01DF91CF911F9111
:1058E0000F91EF900895BB274A3031F4992322F4A9
:1058F000BDE2909581959F4F0C947F2CBB27FB01B7
:105900005527AA27880F991FAA1FA41710F0A41BB8
:1059100083955051B9F7A05DAA3308F0A95DA19312
:10592000009779F7B111B1931192CB010C94E72E46
:105930008F929F92AF92BF92CF92DF92EF92FF929F
:105940000F931F93CF93DF93CDB7DEB729970FB691
:10595000F894DEBF0FBECDBF6A01122FB02E2BE32D
:10596000201720F0FF24F394F00E02C02CE3F22E57
:105970000F2D27E0AE014F5F5F4F0E940F2EBC013D
:105980004981842F8970813031F0E1FC06C0E0FE4E
:1059900006C090E205C09DE203C09BE201C090E01A
:1059A0005E2D507143FF3CC0911102C083E001C0E5
:1059B00084E0811718F4212F281B01C020E0511129
:1059C0000BC0F601822F30E2882319F03193815009
:1059D000FBCFC20ED11C20E0992329F0D6019C9365
:1059E000F60131966F01C6010396E2FE0AC03EE45D
:1059F000D6013C9341E411964C93119712963C9337
:105A000006C03EE6F601308341E641833283FC0165
:105A1000322F40E2332309F442C041933150FACF90
:105A200042FF44C0911102C083E001C084E08117AD
:105A300018F4212F281B01C020E051110BC0F601E2
:105A4000822F30E2882319F031938150FBCFC20EB0
:105A5000D11C20E0992329F0D6019C93F6013196C0
:105A60006F01C6010396E2FE0BC039E4D6013C93F8
:105A70003EE411963C93119736E412963C9307C08E
:105A800039E6F60130833EE6318336E63283FC01A7
:105A9000322F40E2332319F041933150FBCFFC0108
:105AA000E20FF11D10828EEF9FEFA6C021E030E0E3
:105AB000911102C020E030E0161617061CF4FB011D
:105AC000319602C0E1E0F0E02E0F3F1FBB2021F035
:105AD000EB2DF0E0319602C0E0E0F0E02E0F3F1F2A
